:020000021000EC
:10B0000000400020A1100200E1100200E310020045
:10B010000000000000000000000000000000000030
:10B02000000000000000000000000000E510020029
:10B030000000000000000000E7100200E91002001C
:10B04000EB100200EB1002004D140200EB100200A6
:10B05000EB1002000000000061150200EB1002007E
:10B06000EB100200911B0200EB100200EB1002003B
:10B07000EB100200EB100200EB100200EB100200DC
:10B08000EB10020019190200EB100200EB10020095
:10B09000EB100200EB10020095E00100EB10020043
:10B0A000EB100200EB1002000000000000000000A6
:10B0B0000000000000000000000000000000000090
:10B0C00010B5064C2378002B07D1054B002B02D07E
:10B0D000044800E000BF0123237010BD3823002086
:10B0E00000000000ECB30200044B10B5002B03D0AD
:10B0F0000349044800E000BF10BDC0460000000046
:10B100003C230020ECB30200164B002B00D1144B63
:10B110009D46402292029A1A924600218B460F4683
:10B120001348144A121A0BF090FB0F4B002B00D05F
:10B1300098470E4B002B00D09847002000210400B8
:10B140000D000D48002802D00C4800E000BF0BF0B5
:10B15000E7FA2000290006F053FC0BF0BBFAC046CA
:10B160000000080000400020000000000000000077
:10B170003823002000300020000000000000000004
:10B1800010B5040003F06EFAC6235B00E0580433E8
:10B19000E3581430C01A142108F0E8FA080010BD72
:10B1A00008B4034B9C46034BC01A08BC6047C0461A
:10B1B00081B101007801000010B5040003F052FADB
:10B1C000C823C6225B005200E358A258934204D021
:10B1D000E4189534FF34207810BD01204042FBE78D
:10B1E00008B4034B9C46034BC01A08BC6047C046DA
:10B1F000B9B101007801000070B50400C82503F062
:10B2000031FAC6236D005B006059E358984209D0BB
:10B210000130142108F0AAFA615164189534FF3402
:10B22000207870BD01204042FBE7000008B4034BCA
:10B230009C46034BC01A08BC6047C046F9B10100E8
:10B240007801000010B503F049FA10BD70B5040094
:10B250000D0003F007FA87239B00E01803F0AAF81B
:10B260000026B0420FD0D4214900635801365A1C41
:10B27000E318AD33FF3362501D70142A03D12368E5
:10B280002000DB6E9847300070BD000008B4034B0F
:10B290009C46034BC01A08BC6047C0464DB2010033
:10B2A00078010000F7B5040003F0B4FB2300FA2294
:10B2B00000257933FF3392005D609A60394B260098
:10B2C0002360394B394A6360394BC136A360230090
:10B2D000FF36FC33DA673000364903F084FC200087
:10B2E000354FC9303900354AFF3003F089F8230063
:10B2F000E133FF330193042214233149019803F011
:10B300002DF881239B003900E0182E4A03F078F8CD
:10B3100087239B00E018102214232B4903F01EF80A
:10B3200090239B00294A3900E01803F069F8D423E0
:10B330005B00E550183BE550043BE550043BE5500D
:10B34000234B310020001C6003F015FB2100CD31A0
:10B35000FF31200003F00FFB300002F048FF010036
:10B36000200003F08BF92100E5312000FF3103F0CC
:10B3700002FB82239B00E118200003F0FCFA154A2F
:10B380002900019803F026F888239B00E11820008B
:10B3900003F0F1FA91239B002000E11803F0EBFA8F
:10B3A0002000FEBDE896020068970200A897020000
:10B3B00080970200309602005A96020055960200CD
:10B3C0005F960200849602009E960200C3960200D9
:10B3D000542300203DB401000FB410B5029803F0CF
:10B3E000A5F910BC08BC04B0184710B5040006F05D
:10B3F0006DFAC4235B00E3586433984203D3236897
:10B400002000DB6E9847200003F02CF910BDF8B542
:10B41000C62705000C008E187F00B4420CD0EB59F3
:10B420001421581C08F0A2F9E951691823789531C4
:10B43000FF310B700134F0E7F8BD0000094B70B527
:10B440001D680B680C000800DB689847236806003D
:10B450001B6920009847310002002800FFF7D7FF42
:10B4600070BDC0465423002070B5D4256D004259EC
:10B470000400002A12D001008723AD319B00C018C0
:10B48000D2B2FF3102F053FF06F020FAC4235B0072
:10B49000E05000232000635103F0E4F870BD000089
:10B4A00008B4034B9C46034BC01A08BC6047C04617
:10B4B00069B4010078010000144B10B50360144B0F
:10B4C000144A4360144B040083600300FC33DA67C2
:10B4D00090239B00C01802F085FF87239B00E01893
:10B4E00002F00EFF81239B00E01802F07BFF20009A
:10B4F000E130FF3002F004FF2000C930FF3002F0DD
:10B5000071FF200003F03CFA200010BDE896020015
:10B5100068970200A89702008097020010B5040007
:10B52000FFF7CAFF200006F07FFA200010BD0000E0
:10B5300010B5024802F02CFE10BDC0462C2F002092
:10B5400010B5024802F036FE10BDC0462C2F002078
:10B5500010B5024802F02FFE10BDC0462C2F00206F
:10B5600010B5024802F006FE10BDC0462C2F002088
:10B5700010B508300EC8024802F004FE10BDC046E7
:10B580002C2F002010B5024802F001FE10BDC0466D
:10B590002C2F002010B5024802F0F3FD10BDC0466C
:10B5A0002C2F002010B5164CA14208D88021890408
:10B5B000013A0160511E8A418260037110BD114C35
:10B5C000A14202D88021C904F2E70F4CA14202D85F
:10B5D00080210905ECE70D4CA14202D880214905E4
:10B5E000E6E70B4CA14202D880218905E0E7094C2F
:10B5F000A14202D88021C905DAE780210906D7E7F0
:10B6000048E8010090D0030020A1070040420F004D
:10B6100080841E0000093D00F0B587B000900479D9
:10B62000042C3BD0032C3BD0022C3BD0013C63428A
:10B630005C411F4B64421C40E418009B02275B796D
:10B640000193009B9B79002B0AD00027012B07D088
:10B650000337022B04D0033B1F007B1E9F410137A1
:10B6600003AD3B00002221002800FFF79BFF2A00CA
:10B67000009B083343CA43C3009E019B0836012B3D
:10B6800012D13B00002221002800FFF78BFF0ECDD6
:10B690000EC6084802F052FD07B0F0BD064CCCE7DC
:10B6A000064CCAE7064CC8E73B000122EBE7C04660
:10B6B00040420F002C2F00200024F40000127A00DA
:10B6C00000093D0010B5040004F03AFD054B2000D0
:10B6D000083323608023DB05A3600023236102334A
:10B6E000237310BDC0970200002310B51A00022179
:10B6F0000148FFF7E7FF10BD58230020BFF34F8F2D
:10B70000034B044ADA60BFF34F8FC046FDE7C046E3
:10B7100000ED00E00400FA0529DF704728DF7047DC
:10B72000094B5A6E013A5A66002A04D10220074991
:10B730000A7882430A701A6E0132042A01D01A660E
:10B7400070470022FBE7C046702300206C230020D6
:10B7500070B50B4D04006A6E0020042A0FD02B6ECA
:10B76000D318032B00D9043B01326A6618225343D5
:10B77000ED18002128000BF068F80120256070BD4D
:10B780007023002030B5040085B00D001022002188
:10B7900068460BF05AF8237A012B0AD0022B0ED000
:10B7A000636829000193236868469B68984705B041
:10B7B00030BD6A4623690293A38A9381F0E701238F
:10B7C0006A4669461370A289E3894A81D31A0B81BC
:10B7D000E6E700001B4B70B55A6E002A27D01824EC
:10B7E0001D6E6C431C19227A012A06D0022A22D02F
:10B7F00009212000FFF7C6FF19E0A28AE08A121A89
:10B80000FF2A15DC92B2182169435B18D9681B69BD
:10B81000800009181818FFF77FFF11280FD10222A6
:10B8200009490B7893431A00042313430B7070BD2E
:10B8300080225200E7E7A089FFF770FFEDE70028BC
:10B84000F5D0D5E7702300206C230020062310B527
:10B85000044A1178194204D1043B0B431370FFF7DB
:10B86000B9FF10BD6C230020F0B52B4B85B05A6991
:10B87000531C03D180235B055A699202274B1B7826
:10B880000293012302990B400FD1254E2549891BB4
:10B89000090901918B420BD100200199814214D1F9
:10B8A0000123029A13431D4A1370002005B0F0BD16
:10B8B000180130180468002C05D04068441EA041CF
:10B8C000019C201A01900133E4E7C1B203910021E9
:10B8D0000F008B4209D103990130090189190C7BB2
:10B8E0004A60A402121B0A60D7E70C0125000C4C29
:10B8F000A446AC4464462468002C03D064466468C3
:10B90000002C07D1064C6419647BBC4202D9CFB22B
:10B91000039727000131DCE7001000106C230020A2
:10B920002823002038230020F7B51E001D4B1700E8
:10B930001A78012304000D001A4231D0DB180028C8
:10B940002ED0194A90422BD3184A904228D2032273
:10B950001300002F24D0002922D039002943931846
:10B9600011421DD10268013BAA4219D8B2004168B8
:10B97000AA18914214D3013B002E11D001A8FFF761
:10B98000E7FE072300280BD0019B089A1C605A6031
:10B990000122DF601A721D619E82FFF757FF0023AC
:10B9A0001800FEBD6C23002028230020382300202F
:10B9B000F7B51F001B4B16001A78012305000C0079
:10B9C0001A422CD0DB18002829D0174A904226D3DF
:10B9D000164A904223D20133002920D08A0503332E
:10B9E000002A1CD10268013B8A4218D8B2028A1888
:10B9F0004168914213D3013B002E10D001A8FFF7FC
:10BA0000A7FE072300280AD00222019BA40A5F6038
:10BA10001D601A729C811E82FFF718FF0023180018
:10BA2000FEBDC0466C2300202823002038230020C0
:10BA3000022270B5294904000B78134241D0182323
:10BA4000274A156E6B43D018022C04D0032C2CD03F
:10BA5000FFF7C0FE70BD0021224B1970037A012B45
:10BA60000CD0022BF4D18389028A01338381C389EC
:10BA700001339BB2C3819A42EAD10EE0848AC38A21
:10BA8000E11AFF290EDC89B25B18182169439BB2C9
:10BA90005218D38200219C42DAD1FFF773FEFFF7E0
:10BAA0003FFED5E780214900EEE70E4A13780133C7
:10BAB000DBB2032B01D81370CAE7002308211370EF
:10BAC000EBE704200342C3D0834305480B70406E6C
:10BAD0000028BDD013430B70BAE7C0466C2300208A
:10BAE00070230020D823002052DF704753DF7047B7
:10BAF0007047000070B50500044C0549200005F0B2
:10BB00004FFA2900200005F041FA70BDBC2C00203E
:10BB1000639F020010B50249024805F011FA10BDFA
:10BB20009A9D0200702F002010B50249024805F0CE
:10BB300007FA10BD199E0200702F002010B50249AF
:10BB4000024805F0FDF910BDBB9D0200702F0020DA
:10BB5000F0B50B680C0085B0DB680600080098475C
:10BB6000236805001B692000984702ABDC1D02001A
:10BB7000290020000AF04DFE974998480BF020FD5F
:10BB8000051E04D0300002F073FB05B0F0BD247830
:10BB9000012C00D0F6E0924F9249380005F000FAEF
:10BBA000914B92491B68002B00D19149380005F058
:10BBB000F7F9904E904B914D32682800995C04F053
:10BBC00087FC8F4C01908F49200005F0C4F90A22B0
:10BBD0003168200005F03BFA8B49200005F0BBF9E5
:10BBE000854B32682000995C0A2205F034FA8749B7
:10BBF000200005F0B0F90A220199200005F02BFA87
:10BC00008049380005F0A7F90A223168380005F0AC
:10BC10001EFA7D49380005F09EF9774B32683800EE
:10BC2000995C0A2205F017FA7849380005F093F973
:10BC30000A220199380005F00EFAC82005F05EFED0
:10BC4000280004F0F4FB642005F058FE280004F0FE
:10BC5000DEFA05006E49200005F07DF9102229006A
:10BC6000200005F012FA6A49380005F099F910220F
:10BC70002900380005F009FA10232B40019307D062
:10BC80006449200005F08CF96249380005F088F914
:10BC90002B0608D5604F2000390005F081F93900E6
:10BCA0004F4805F07DF96B0608D55C4F2000390040
:10BCB00005F076F939004A4805F072F9AB0608D567
:10BCC000574F2000390005F06BF93900444805F062
:10BCD00067F9019B002B08D0524F2000390005F076
:10BCE0005FF939003E4805F05BF92B0708D54E4F48
:10BCF0002000390005F054F93900394805F050F9B1
:10BD00006B0708D5494F2000390005F049F9390083
:10BD1000334805F045F9AB0708D0454F20003900FE
:10BD200005F03EF939002E4805F03AF9EB0708D541
:10BD3000404D2000290005F033F92900284805F07E
:10BD40002FF9019B002B08D0324D2000290005F06F
:10BD500027F92900224805F023F933680133172B0E
:10BD60000EDC35492000336005F006F9012108207A
:10BD700005F078FFC82005F0C1FD0021082010E083
:10BD80000023EEE7002C0FD12C491D4805F0F4F8F4
:10BD900001210E2005F066FFC82005F0AFFD21004F
:10BDA0000E2005F05FFFF0E6022C00D0EDE62449FE
:10BDB000134805F0E1F8234B013C1C60224B29009D
:10BDC0001A68224B0E201A6005F04CFF290008204B
:10BDD00005F048FF2100D1E7A82000200C25002015
:10BDE000BC2C0020989B0200B02E0020719B02000A
:10BDF000829B0200A82D0020B82000204C2E00209D
:10BE0000702F00209F9B0200AE9B0200BE9B020091
:10BE1000CC9B0200D59B0200EE9B0200069C020018
:10BE20001F9C0200389C0200529C02006C9C020085
:10BE3000869C02009C9C0200B59C0200C49C0200EF
:10BE4000D49C0200EC2D0020F02D0020F42D0020C9
:10BE500070B5074C0D002000064905F0A1F8064911
:10BE6000002D00D10549200005F09AF870BDC046AC
:10BE7000702F00206C9F0200759F0200869F0200B9
:10BE800010B50400024B036002F03AFA200010BD26
:10BE9000F8A2020010B50400024B0360FFF7F0FFA8
:10BEA000200010BD1C99020010B50400FFF7F2FF3E
:10BEB000200005F0B9FD200010BD000010B5040001
:10BEC000024B0360FFF7E6FF200010BD4C99020013
:10BED00010B50400FFF7F2FF200005F0A5FD2000DB
:10BEE00010BD000010B50400024B0360FFF7C8FF4F
:10BEF000200010BDBC98020010B50400FFF7F2FF4F
:10BF0000200005F091FD200010BD000010B50400D8
:10BF1000024B0360FFF7E6FF200010BDEC98020023
:10BF200010B50400FFF7F2FF200005F07DFD2000B2
:10BF300010BD000010B50400024B0360FFF7A0FF26
:10BF4000200010BD5C98020010B50400FFF7F2FF5E
:10BF5000200005F069FD200010BD000010B50400B0
:10BF6000024B0360FFF7E6FF200010BD8C98020033
:10BF700010B50400FFF7F2FF200005F055FD20008A
:10BF800010BD000010B50400024B0360FFF778FFFE
:10BF9000200010BD7C99020010B50400FFF7F2FFED
:10BFA000200005F041FD200010BD000010B5040088
:10BFB000024B0360FFF7E6FF200010BDAC990200C2
:10BFC00010B50400FFF7F2FF200005F02DFD200062
:10BFD00010BD000010B50400024B0360FFF750FFD6
:10BFE000200010BDFC97020010B50400FFF7F2FF1F
:10BFF000200005F019FD200010BD000010B5040060
:10C00000024B0360FFF7E6FF200010BD2C980200F2
:10C0100010B50400FFF7F2FF200005F005FD200039
:10C0200010BD10B50400FFF72BFF200005F0FCFC4D
:10C03000200010BD07B501A8FFF758FD0322019BA2
:10C04000D8171040C01880100EBD000010B50E4B60
:10C0500086B01B680D491C6803A805F008FB0A227E
:10C060002100684605F057FB694603A805F0DEFB92
:10C070000100074804F08AFF684605F0B0FA03A8FB
:10C0800005F0ADFA06B010BD28230020CB9E0200BB
:10C09000702F002070B5234C8CB005002249200081
:10C0A00004F07EFF8022214ED200336802959D1855
:10C0B000FFF7CCFF012302AA290000903000FFF710
:10C0C00033FC05001A4906A805F0D1FA0A22290016
:10C0D00003A805F0FCFA03A906A805F0A7FB15497B
:10C0E00005F0B1FB06000A22029909A805F013FB2E
:10C0F00009A9300005F09AFB0100200004F046FF7A
:10C1000009A805F06CFA03A805F069FA06A805F07D
:10C1100066FA002D03D00849200004F041FF0CB05E
:10C1200070BDC046702F0020D09E02002823002042
:10C13000D89E020018B10200E39E020030B50B68E1
:10C140000C0089B00800DB689847236805001B696C
:10C15000200098476B46DC1D0200290020000AF0F1
:10C1600058FB2478294D631E092B0CD8200008F0B9
:10C17000ADFB274908F034F8264907F059FE0021A5
:10C1800007F0BCFC2860244905A805F070FA0222DB
:10C19000296802A805F002FB02A905A805F046FBE4
:10C1A0001E4D0100280004F0F1FE02A805F017FA68
:10C1B00005A805F014FA1A49280004F0F1FE8022BF
:10C1C0001848D2000368991800230122FFF7F0FBFA
:10C1D000002816D0144905A805F049FA0A222100C2
:10C1E00002A805F063FA02A905A805F01FFB0100EB
:10C1F000280004F0CBFE02A805F0F1F905A805F02F
:10C20000EEF92000FFF746FF09B030BDE82000201E
:10C210000000404000002041DD9D0200702F002002
:10C22000F29D020028230020079E020070B5234CD7
:10C230008CB005002249200004F0B2FE8022214E7D
:10C240001201336802959D18FFF700FF012302AA2F
:10C25000290000903000FFF767FB05001A4906A887
:10C2600005F005FA0A22290003A805F030FA03A90F
:10C2700006A805F0DBFA154905F0E5FA06000A22E2
:10C28000029909A805F047FA09A9300005F0CEFA8D
:10C290000100200004F07AFE09A805F0A0F903A827
:10C2A00005F09DF906A805F09AF9002D03D008497C
:10C2B000200004F075FE0CB070BDC046702F002049
:10C2C000F19E020028230020F99E020018B102000E
:10C2D000E39E020030B50B680C0089B00800DB68F3
:10C2E0009847236805001B69200098476B46DC1DB2
:10C2F0000200290020000AF08CFA2478294D631EE0
:10C30000092B0CD8200008F0E1FA274907F068FF54
:10C31000264907F08DFD002107F0F0FB2860244935
:10C3200005A805F0A4F90222296802A805F036FA4A
:10C3300002A905A805F07AFA1E4D0100280004F0B4
:10C3400025FE02A805F04BF905A805F048F91A49A1
:10C35000280004F025FE802218481201036899186D
:10C3600000230122FFF724FB002816D0144905A85A
:10C3700005F07DF90A22210002A805F097F902A92B
:10C3800005A805F053FA0100280004F0FFFD02A8FB
:10C3900005F025F905A805F022F92000FFF746FF72
:10C3A00009B030BDEC2000200000404000002041DA
:10C3B000DD9D0200702F0020F29D02002823002046
:10C3C000079E020070B506000D000024B44214DA86
:10C3D0000121122005F046FC280005F08FFA00210B
:10C3E000122005F03FFC280005F088FA034B1220CC
:10C3F000196805F037FC0134E8E770BDBC2E002059
:10C40000F8B50C00134D09220021060028000AF09F
:10C410001CFA23682000DB689847236807001B6923
:10C42000200098473900020028000AF0F2F90A4972
:10C4300028000BF0C5F86421002803D10430FFF771
:10C44000C1FFF8BD0120FFF7BDFF300001F010FF74
:10C45000F7E7C0460C250020A820002070B5050095
:10C46000084C0949200004F06BFD280001F0DEFEB5
:10C470000100200004F094FD64210420FFF7A2FFD6
:10C4800070BDC046702F00203E9E020070B50500B2
:10C490000D4C0E49200004F053FD280001F0C6FEAB
:10C4A0000100200004F07CFD094C200002F066FB36
:10C4B000002803D0200002F06AFB70BD6421052033
:10C4C000FFF780FFF9E7C046702F0020229F02008F
:10C4D000102E0020F8B5194C06220021060020007D
:10C4E0000AF0B3F9164D280002F044FB07002800BB
:10C4F00002F042FB3900020020000AF08AF928000D
:10C5000002F038FB01000F4805F03DF90E4920000C
:10C510000BF056F800280DD10C490230FFF752FFFE
:10C520000B4D0C49280004F00BFD2800210004F0FD
:10C5300037FDF8BD300001F09BFEF1E73C2E0020F6
:10C54000102E0020102F0020E020002010270000D7
:10C55000702F00204E9F020073B500240600134D7B
:10C560001349280004F0ECFC124B30001C70124BF5
:10C570001C6001F05BFE0100280004F011FD642145
:10C580000820FFF71FFF210009220C480AF05DF97F
:10C59000002300226946009201930948082201F015
:10C5A000C6FE2100132005F05DFB73BD702F002037
:10C5B000049F0200B42E0020A02D00200C25002096
:10C5C000C8240020182110B5A0240020114B124AC5
:10C5D000E4009950114A17395060195150601960A0
:10C5E00051680029FCD0A121C9005C58002151608C
:10C5F0000122E1205A60A0220001D200995060433C
:10C60000FF3107F02DF8212180B207F0B3F8C0B256
:10C6100010BDC0460070004004050000FC700040E2
:10C6200070B50400324D88B03249280004F088FC0F
:10C63000200001F0FBFD0100280004F0B1FCC8213E
:10C640000520FFF7BFFE05F041F901262A4B1860CF
:10C650002A4B1E70FFF7B6FF0400294905A805F014
:10C6600006F80A22210002A805F020F802A905A870
:10C6700005F0DCF8234905F0E6F80100280004F095
:10C6800085FC02A804F0ABFF05A804F0A8FF6B46E8
:10C690003200D91C1C480C7001F049FEFFF7CAFC9F
:10C6A0000A3844B2042201A91848019401F03FFE5F
:10C6B000174905A804F0DBFF0A22210002A805F0B3
:10C6C00006F802A905A805F0B1F8124905F0BBF873
:10C6D0000100280004F05AFC02A804F080FF05A81D
:10C6E00004F07DFF3100132005F0BCFA08B070BDE6
:10C6F000702F00205D9E0200002E0020B42E00202E
:10C70000789E0200889E0200182B0020E42E002054
:10C710008A9E02009C9E020007B56B46D9710733C2
:10C720000122190001F003FE0EBD0000F0B5E54D39
:10C730009BB0280003F089FE002824D0E24CE34996
:10C74000200004F02DFC32230AAE280032000DA98F
:10C75000337003F01BFDDE4D002801D100F0EDFE2B
:10C76000DC4F2800390004F0F6FB0DA9280004F086
:10C7700017FC0D223900200004F0B9FB32780DA916
:10C78000200004F0B4FB0DA8FFF7AEF9002802D199
:10C790000D98FFF74DF905F099F8CF4A0090116810
:10C7A000431ACE4909688B4200D91060152005F064
:10C7B0006FFACB4BCB4D1B682860CB4C984202D014
:10C7C00005F084F8206005F081F82368C01AC74B93
:10C7D0001B68984225D9C64C2B682268934220D00A
:10C7E000C4490DA8236004F042FF0A2221680AA868
:10C7F00004F06DFF0AA90DA805F018F80100B24871
:10C8000004F0C4FB0AA804F0EAFE0DA804F0E7FE59
:10C81000206808F011F80422069006A9B64801F035
:10C8200086FD2A68AE4BB54C1A60B54A009B11686C
:10C830005B1A21688B4200D835E1009B0021102053
:10C84000136005F00FFAAF4A1368002B03D0013BC9
:10C8500013606423236005F039F80024019001215E
:10C86000102005F0FFF92500052005F00BF9A64B77
:10C8700006001860A54BE71807F0DEFF00233860BC
:10C880007B601F1C96235B009E4200DD0135B420B7
:10C8900040000138C046C046C046C046C046C046FB
:10C8A000C046C046C046C046C046C046F1D18023FF
:10C8B0000834DB009C42D7D10021102005F0D2F9CA
:10C8C00005F004F82B002D3B0600262B00D9E5E0EF
:10C8D000012300228D498E4805F0AAFF8D4C80224D
:10C8E00021008A4806F04EF88020800009F05CFFA5
:10C8F00080222100920009F08CFF8020800009F046
:10C9000053FF80222100920009F083FF200003AB37
:10C9100002AA4021276005F005FA039B04AA9B00A8
:10C920001F51200005AB402105F0FCF9019BF01AD6
:10C9300009F078FD02000B000020774908F022FB87
:10C9400009F0F4FD041C039807F0C0FF011C201C33
:10C9500007F046FC09F098FD0022704B08F01CFF20
:10C96000FE2300229B0508F017FF09F0DFFD6C494C
:10C97000041C07F04FF8002800D18FE06949201C03
:10C9800007F034F8002800D188E00121102005F0DC
:10C9900069F9654B1B68002B02D00122634B1A60BA
:10C9A00063490AA804F063FE0222211C07A804F0D0
:10C9B000F5FE07A90AA804F039FF5E4904F043FF19
:10C9C00004000A2229000DA804F081FE0DA9200010
:10C9D00004F02CFF3C4C0100200004F0D7FA0DA815
:10C9E00004F0FDFD07A804F0FAFD0AA804F0F7FD25
:10C9F00051490AA804F03BFE0A22039907A804F053
:10CA00008AFE07A90AA804F011FF4C4D290004F082
:10CA10001AFF0600022202990DA804F0BFFE0DA91C
:10CA2000300004F003FF0100200004F0AFFA0DA86D
:10CA300004F0D5FD07A804F0D2FD0AA804F0CFFD4C
:10CA40003F490AA804F013FE0A22059907A804F03A
:10CA500062FE07A90AA804F0E9FE290004F0F3FE2B
:10CA60000500022204990DA804F098FE0DA92800E3
:10CA700004F0DCFE0100200004F088FA0DA804F0A8
:10CA8000AEFD07A804F0ABFD0AA804F0A8FD012242
:10CA90001C4B1A60FA22194B92001A600023294A93
:10CAA0001360294A1360294B009A1B68D31A284A3D
:10CAB0001268934200D8EEE0264E3368002B00D176
:10CAC000E9E049E04C2E0020BC2C0020989F020099
:10CAD000702F0020A49F0200002E0020D8200020EC
:10CAE000E02D0020FC2D0020DC2D0020D420002093
:10CAF000F02D0020BE9F020030240020DC2000200A
:10CB00000C2E0020D82D0020D42D00201825002028
:10CB1000D4A90200182900200000604000408F4086
:10CB20000000C84300001644B82E0020C82D002085
:10CB3000CA9F0200D19F0200D99F0200B59B02004C
:10CB4000EC9F0200CC2D0020D02D0020042E0020D0
:10CB500084200020EC2D0020F1490AA804F087FD74
:10CB6000F04C0A22216807A804F0B1FD07A90AA821
:10CB700004F05CFEEC4904F066FEEC4F390004F072
:10CB800062FEEB4D0A22019029680DA804F09FFD7A
:10CB90000DA9019804F04AFE0100E64804F0F6F9F8
:10CBA0000DA804F01CFD07A804F019FD0AA804F064
:10CBB00016FDDB490AA804F05AFD0A22216807A8DD
:10CBC00004F085FD07A90AA804F030FED64904F058
:10CBD0003AFE390004F037FE07000A2229680DA842
:10CBE00004F075FD0DA9380004F020FE0100D248C4
:10CBF00004F0CCF90DA804F0F2FC07A804F0EFFC57
:10CC00000AA804F0ECFC23682A68CC4C9A420ED0A7
:10CC100000250021082005F025F800210E2005F050
:10CC200021F80321C6483560FFF776FD2560C54B26
:10CC300022681B689A4212DBC34D2E68012E0ED16A
:10CC40000021082005F00EF8642004F057FE3100A2
:10CC50000E2005F007F802232B6000232360BB4B56
:10CC600022681B689A420EDBB74D2B68022B0AD153
:10CC700000210E2004F0F6FF0421B148FFF74CFD1F
:10CC800000232B602360B24B22681B68D3182360FB
:10CC9000009AB04B1A60AF4B009A1B68D31AAC4A8B
:10CCA0001268934200D828E2AB4B1E68002E00D1D8
:10CCB00023E2AA4B1B68012B06D0A94B1A68A94B8B
:10CCC0001B689A4200DAE3E0012E00D0E0E0A64DB6
:10CCD0000DA8290004F0CBFCA14C0A2221680AA867
:10CCE00004F007FD0AA90DA804F0A0FD914F010072
:10CCF000380004F04BF90AA804F071FC0DA804F008
:10CD00006EFC29000DA804F0B2FC0A2221680AA8D2
:10CD100004F0EFFC0AA90DA804F088FD0100864884
:10CD200004F034F90AA804F05AFC0DA804F057FCEA
:10CD30008E490DA804F09BFC884D0A2229680AA898
:10CD400004F0C5FC0AA90DA804F070FD010038002C
:10CD500004F01CF90AA804F042FC0DA804F03FFC02
:10CD600082490DA804F083FC0A2229680AA804F06D
:10CD7000AEFC0AA90DA804F059FD01006E4804F0AC
:10CD800005F90AA804F02BFC0DA804F028FC3100DA
:10CD9000122004F067FF0820002104F063FF2B68D5
:10CDA0007348012B05D16F4B22681B6832219A42D0
:10CDB00000DB3421FFF7B0FC6E4E0AA8310004F00E
:10CDC00056FC584D0A22296807A804F080FC07A9E0
:10CDD0000AA804F02BFD684F390004F034FD544CD0
:10CDE0000A22216801900DA804F071FC0DA9019898
:10CDF00004F01CFD01004F4804F0C8F80DA804F031
:10CE0000EEFB07A804F0EBFB0AA804F0E8FB3100F6
:10CE10000AA804F02CFC0A22296807A804F057FC91
:10CE200007A90AA804F002FD390004F00CFD060071
:10CE30000A2221680DA804F04AFC0DA9300004F074
:10CE4000F5FC01003C4804F0A1F80DA804F0C7FB74
:10CE500007A804F0C4FB0AA804F0C1FB2B682268F1
:10CE60003D4D3F4C454E464F9A4200D06EE34549FA
:10CE7000304804F095F843492F4804F091F8062211
:10CE8000002321683A60404A33602B6011602360C0
:10CE9000324B1B68012B06D0314B1A683B4B1B6889
:10CEA0009A4200DA20E12C4B1B68022B00D01BE1D8
:10CEB0002D4D0DA8290004F0DAFB294C0A22216827
:10CEC0000AA804F016FC0AA90DA804F0AFFC194F3B
:10CED0000100380004F05AF80AA804F080FB0DA8FD
:10CEE00004F07DFB29000DA804F0C1FB0A22216893
:10CEF0000AA804F0FEFB0AA90DA804F097FC0100A3
:10CF00000D4804F043F80AA804F069FB0DA804F0EA
:10CF100066FB164E0DA8310004F0A9FB38E0C046B0
:10CF2000F89F0200F02D002018B1020000A00200BE
:10CF3000F42D0020702F0020BC2C0020202F00207A
:10CF4000A42400208C200020EC2D00209020002024
:10CF500084200020042E0020B82E0020C82D0020A0
:10CF60001C2F0020982000200EA002001DA002000F
:10CF7000C02E00202DA0020036A00200BC2E0020F2
:10CF8000AC2D002047A00200B02D002094200020EE
:10CF9000ED4D0A2229680AA804F099FB0AA90DA8F8
:10CFA00004F044FC0100380003F0F0FF0AA804F08C
:10CFB00016FB0DA804F013FB31000DA804F057FB7D
:10CFC0000A2229680AA804F082FB0AA90DA804F025
:10CFD0002DFC0100DD4803F0D9FF0AA804F0FFFA98
:10CFE0000DA804F0FCFA0021122004F03BFE0E20F4
:10CFF000002104F037FE2B68D548012B05D1D54B15
:10D0000022681B6833219A4200DB3421FFF784FB3E
:10D01000D14E0AA8310004F02AFBD04D0A2229681B
:10D0200007A804F054FB07A90AA804F0FFFBCC4FA3
:10D03000390004F008FCCB4C0A22216801900DA8AD
:10D0400004F045FB0DA9019804F0F0FB0100C6486F
:10D0500003F09CFF0DA804F0C2FA07A804F0BFFA81
:10D060000AA804F0BCFA31000AA804F000FB0A2266
:10D07000296807A804F02BFB07A90AA804F0D6FB2F
:10D08000390004F0E0FB06000A2221680DA804F034
:10D090001EFB0DA9300004F0C9FB0100AB4803F0F2
:10D0A00075FF0DA804F09BFA07A804F098FA0AA8E7
:10D0B00004F095FA2A682368AC4DAD4CAD4EAE4FE6
:10D0C000934200D050E2AD49A74803F069FFAB4955
:10D0D0009E4803F065FF0722002321683A60A84AB2
:10D0E00033602B6011602360A14AA64B11681B6856
:10D0F000CB181360A44B009A1A60A44B009A1B68CB
:10D10000D31AA04A1268934200D811E29A4C2368BD
:10D11000002B00D10CE28C4B1A68002A01D00022AF
:10D120001A609B4E0DA8310004F0A1FA944D0A221A
:10D1300029680AA804F0DDFA0AA90DA804F076FB14
:10D140000100894803F022FF0AA804F048FA0DA85C
:10D1500004F045FAFA212868890006F0F1FB00295D
:10D1600016D131000DA804F082FA0A2229680AA813
:10D1700004F0BFFA0AA90DA804F058FB0100734897
:10D1800003F004FF0AA804F02AFA0DA804F027FA15
:10D190002668012E08D10A2004F0B0FB31000820D7
:10D1A00004F060FD032323602368072B08D10A20C5
:10D1B00004F0A4FB0121082004F054FD092323609E
:10D1C0002368022B08D10A2004F098FB01210E20CD
:10D1D00004F048FD042323602368062B08D10A20AD
:10D1E00004F08CFB01210E2004F03CFD0823236099
:10D1F0002368052B0AD1594B1B68012B06D100214E
:10D20000082004F02FFD002323602B602368032BEC
:10D2100060D1524D5F4E2B68326893425AD0332111
:10D220005D48FFF779FA5D4F0AA8390004F01FFA4C
:10D230000A22316807A804F04AFA07A90AA804F0EC
:10D24000F5FA574904F0FFFA0A22019029680DA85F
:10D2500004F03DFA0DA9019804F0E8FA01004248F3
:10D2600003F094FE0DA804F0BAF907A804F0B7F98A
:10D270000AA804F0B4F939000AA804F0F8F90A225F
:10D28000316807A804F023FA07A90AA804F0CEFA27
:10D29000434904F0D8FA06000A2229680DA804F0D0
:10D2A00016FA0DA9300004F0C1FA0100274803F076
:10D2B0006DFE0DA804F093F907A804F090F90AA8F0
:10D2C00004F08DF90021082004F0CCFC00232C4A46
:10D2D00023601360284C2368092B17D1284D2B6835
:10D2E000002B13DC33212C48FFF716FA2D4E1E4875
:10D2F000310003F055FE3100144803F051FE0021C7
:10D30000082004F0AFFC00232B6023602368042B6B
:10D3100000D09FE0114D1F4E2B683268934200D120
:10D3200098E032211C48FFF7F7F91F4F0AA839008F
:10D3300004F09DF90A22316807A804F0C8F907A98A
:10D340000AA804F073FA31E0C82D0020BC2C00209C
:10D35000C02E0020942000202DA00200F02D0020DF
:10D3600036A00200F42D0020702F0020B82E0020DF
:10D370001C2F0020BC2E0020AC2D002047A0020056
:10D38000B02D002084200020042E0020082E002034
:10D390006EA00200F82D0020DC2300207AA00200FD
:10D3A000B0A00200B5A00200DBA00200784904F0A2
:10D3B0004AFA0A22019029680DA804F088F90DA9FB
:10D3C000019804F033FA0100724803F0DFFD0DA864
:10D3D00004F005F907A804F002F90AA804F0FFF820
:10D3E00039000AA804F043F90A22316807A804F0BA
:10D3F0006EF907A90AA804F019FA654904F023FA9E
:10D4000006000A2229680DA804F061F90DA9300070
:10D4100004F00CFA0100604803F0B8FD0DA804F018
:10D42000DEF807A804F0DBF80AA804F0D8F8002119
:10D430000E2004F017FC0A2004F060FA01210820F5
:10D4400004F010FCFA21554AC90013685B181360F8
:10D4500005232360524D514C2B68082B16D12368AD
:10D46000002B13DC32214F48FFF756F94E4E494846
:10D47000310003F095FD3100474803F091FD002194
:10D480000E2004F0EFFB00232B6023602B68002BA1
:10D4900045D02368002B42DC444E0DA8310004F037
:10D4A000E6F80A2221680AA804F023F90AA90DA8BF
:10D4B00004F0BCF90100374803F068FD0AA804F045
:10D4C0008EF80DA804F08BF831000DA804F0CFF809
:10D4D0000A2221680AA804F00CF90AA90DA804F090
:10D4E000A5F901002C4803F051FD0AA804F077F8D3
:10D4F0000DA804F074F80021082004F0B3FB00210B
:10D500000E2004F0AFFB2A4C34212368002B38D1C5
:10D510002848FFF701F90023204A2B6013601F4AB7
:10D52000254B11681B68CB1A1360244B009A1A60B4
:10D530002348FDF75AFF1BB0F0BD224E28003100F2
:10D5400003F02EFD0B223100FFF71AF90122022110
:10D550003260002239601C492A60086822600F4945
:10D560001A4A0860136093E40121002339601649C8
:10D57000336008682B6009492360144B08601A6007
:10D58000B2E50848FFF7C8F800232360C3E7C046A8
:10D59000B0A00200702F0020BC2C0020B02D002075
:10D5A000AC2D0020DC23002011A1020037A10200D5
:10D5B000A02D0020C02E002084200020082E002056
:10D5C000442B0020B29F0200A4200020F82D002050
:10D5D00037B5040000F06CFE0500200000F066FE88
:10D5E0006B46DC1D02002900200009F012F92078AA
:10D5F0003EBD000070B5444C86B044490500200093
:10D6000003F09EFC4249434809F0DAFF061E00D0B1
:10D6100075E0414D2800FFF7DBFF0100200003F01B
:10D62000C9FC2800FFF7D4FF31282FD13B4B1A68E3
:10D63000012A04D132213A481E60FFF76DF83949BA
:10D64000200003F099FC384B384E1B683849684677
:10D65000336004F00CF80A22316803A804F037F8AC
:10D6600003A9684604F0E2F80100200003F08EFCF4
:10D6700003A803F0B4FF684603F0B1FF01212D4B6E
:10D68000082019602C4B196004F0ECFA2800FFF711
:10D690009FFF302831D12949200003F06DFC1F4B3A
:10D6A0001A68012A05D1002232211D481A60FFF7AD
:10D6B00033F81D4B1D4D1B681D4968462B6003F058
:10D6C000D6FF0A22296803A804F001F803A96846D6
:10D6D00004F0ACF80100200003F058FC03A803F0AC
:10D6E0007EFF684603F07BFF01210222114B0E20D2
:10D6F0001960114B1A6004F0B5FA06B070BD28002D
:10D7000000F0B6FDF9E7C046702F00209F9E020092
:10D71000A82000200C250020C02E0020A02D0020D5
:10D72000DC230020189D0200F02D0020F42D0020A5
:10D73000BE9E0200A42D0020B82E0020559D0200A0
:10D74000F8B5564C56490500200003F0F9FB554941
:10D75000554809F035FF002800D09BE0534E3000BB
:10D76000FFF736FF0100200003F024FC3000FFF734
:10D770002FFF31281BD101254D49200003F0FCFB70
:10D780004C4B4D4F1D604D4B1A68002A59D11D60FE
:10D790004B4A4C4B12681D604B4B3A601A684B4B1E
:10D7A0001A604B4B290008201D6004F05BFA300022
:10D7B000FFF70EFF30281BD102274649200003F057
:10D7C000DBFB3C4B444D1F603C4B1A68002A53D195
:10D7D0000121424A196012682A603A4B0E201960F2
:10D7E000394B1A68394B1A60394B1F6004F03AFA0A
:10D7F0003000FFF7EDFE32283DD130490B68012B98
:10D8000012D12C4B1A68022A05D133480268C8325B
:10D81000026000221A601A68012A05D126480268AF
:10D82000C832026000221A60002320000B602C49DD
:10D8300003F0A2FB264B0A221968200003F00BFC20
:10D8400019E0284B3A681B689A420DDA26492000F5
:10D8500003F092FB3B68C8333B601B4B1A681B4BC1
:10D860001A60184B1D609CE735213000FEF754FF0D
:10D870000022124B1A60F8BD1C4B2A681B689A42A2
:10D88000F2DA1B49200003F077FB2B680121C83333
:10D890002B60A2E7280000F0EBFCECE7702F0020E3
:10D8A000E59C0200A82000200C250020DC2300209D
:10D8B0000E9D02009C2D002088200020A02D00201D
:10D8C0009C200020A42D0020F02D0020F42D00200D
:10D8D000B82E00204B9D0200B4200020A020002084
:10D8E0008B9D020094200020269D0200982000209D
:10D8F000649D020010B5040004F096F8200010BDED
:10D90000F8B50023644C1A0002212000FDF7DAFE6E
:10D91000624D23001C220221280002F059FC604CB9
:10D9200060492200280005F091FD5F4D0923022285
:10D930000A212800FDF7B6FC22005C49280005F00A
:10D9400085FD5B4D5B49280003F091FE22005A499A
:10D95000280005F07BFD5949594801F044F959491F
:10D96000594801F040F9594E1A225949300001F046
:10D9700043F9584D22002900300005F067FD564E4E
:10D9800008225649300001F093F922005449300032
:10D9900005F05CFD534F544A3900544800F030FD07
:10D9A000534E22003100514805F050FD5149524874
:10D9B00001F011F902224949504801F0BFF8220054
:10D9C0004F494E4805F042FD4E494F4801F00BF9D2
:10D9D00002224E494E4801F027F922004D494C4899
:10D9E00005F034FD4C494D4801F0FDF802224C4948
:10D9F0004C4801F031F922004B494A4805F026FD18
:10DA00004A494B4801F0EFF812224A494A4801F0CE
:10DA100039F922004949484805F018FD3900484ABB
:10DA2000484800F0EDFC22003100464805F00EFDAC
:10DA30001A224549454801F0DFF8290022004348F1
:10DA400005F004FD1A224249424801F0D5F82900A8
:10DA50002200404805F0FAFC1A223F493F4801F0F5
:10DA6000CBF8290022003D4805F0F0FC39003C4A83
:10DA70003C4800F0C5FC220031003A4805F0E6FCC5
:10DA8000394E1A223000394901F0B6F82900300029
:10DA9000220005F0DBFCF8BDB42D00204C2E002048
:10DAA00080200020F1BA0100442B0020B9B401000D
:10DAB000102F002096A90200DF150200D499020061
:10DAC000E42D0020F9990200EC240020C02E002053
:10DAD0001E9A0200FDBF0100C8240020239A020004
:10DAE000ADBF01005A960200289A0200F4240020DB
:10DAF000E5E30100339A0200442E0020102E00209E
:10DB00002DEB0100389A02003C2B00203D9A0200C8
:10DB1000182B00205DBF0100629A0200082F002030
:10DB2000679A0200E42E00200DBF01006C9A0200EB
:10DB30009C240020919A020030240020BDBE0100E8
:10DB4000B69A020018240020C89A0200542400202B
:10DB5000ED9A020078240020129B0200A4240020E9
:10DB6000379B020000240020DC2300204C9B020095
:10DB7000E121F0B5F44F87B04902380003F0C0FA54
:10DB80000121122004F050F80121102004F04CF87B
:10DB90000021062004F048F80121082004F044F890
:10DBA0000021082004F05EF801210E2004F03CF86A
:10DBB00000210E2004F056F80121132004F034F85F
:10DBC0000021132004F04EF80221152004F02CF857
:10DBD0000021052004F028F800211C2004F024F87E
:10DBE0000121042004F020F801210F2004F01CF88A
:10DBF00000210F2004F036F80021042004F032F850
:10DC00000021162004F010F80021080004F00CF8A0
:10DC1000C021CE4C4900200000F0F1FECC4920008C
:10DC200000F02FFDCB4D280000F0E1FA01002000AC
:10DC300000F024FDC849200000F09DFEC7492000E7
:10DC4000043100F098FEC649200000F094FEC5495A
:10DC50002000043100F08FFE2900200000F08BFE30
:10DC6000C14E2000311D00F086FEC0492000043165
:10DC700000F081FEBE4D2000291D00F07CFEBD4954
:10DC80002000043100F077FEBB49200000F073FE55
:10DC9000BA4B2000191D00F06EFEB9492000043176
:10DCA00000F069FEB74B2000191D00F064FEB64B72
:10DCB0002000191D00F05FFEB44B2000191D00F07C
:10DCC0005AFEB349200000F056FEB24B2000191D49
:10DCD00000F051FEB049200000F0D6FCAF4B200010
:10DCE000191D00F0D1FCAE4A0021200000F000FD1B
:10DCF000AC4A0121200000F0FBFCAB4A02212000CD
:10DD000000F0F6FCA94A0321200000F0F1FCA84A2B
:10DD10000021A24800F044FFA64A0021300000F094
:10DD200059FBA54A00219B4800F054FBA34A01215E
:10DD3000924800F04FFBA24A0021924800F04AFBB3
:10DD4000A04A0021904800F045FB9F4A00218F48DF
:10DD500000F040FB9D4A01218C4800F03BFB9C4AAF
:10DD60000021280000F036FB9A4A0121280000F02B
:10DD700031FB2000FDF730FB9749380003F0FCF839
:10DD8000FA2101208900FEF71DFB0022934B33216D
:10DD900030001A60FEF7C0FC39212800FEF7BCFCF9
:10DDA000FDF762FD8E49002800D18E49380003F04E
:10DDB000F7F880228C4DD2002B6803A89E58802251
:10DDC00012019C5831000A2203F0A5FC03A9380077
:10DDD00003F0DCF803A803F002FC0A22210003A8E8
:10DDE00003F099FC03A9380003F0D0F803A803F06E
:10DDF000F6FB731C00D011E17C49380003F0D0F829
:10DE000080222B68D2009918280000230122FDF7F8
:10DE1000CFFD002803D07649380003F0C1F8052172
:10DE20005848FEF779FC584E631C00D0FCE06F495F
:10DE3000380003F0B5F880222B68120199182800E9
:10DE400000230122FDF7B4FD002803D06849380003
:10DE500003F0A6F805213000FEF75EFC654C66492C
:10DE6000200002F0EBFD654B0500186001000A225E
:10DE7000380003F0F0F8002D00D1DBE0604E3800F0
:10DE8000310003F08DF85F4D3100280003F088F871
:10DE900000222000110002F0DFF906F017FD5A49B8
:10DEA000061C03A803F0E3FB0222311C684603F0C2
:10DEB00075FC694603A803F0B9FC0100380003F0C3
:10DEC00065F8684603F08BFB03A803F088FB4E4916
:10DED00003A803F0CCFB0222311C684603F05EFC71
:10DEE000694603A803F0A2FC0100280003F04EF8E5
:10DEF000684603F074FB03A803F071FB434A4449EE
:10DF0000200002F0BFF90B21200002F0E1FA050029
:10DF1000404903A803F0ABFB0A222900684603F03E
:10DF2000D6FB694603A803F081FC0100380003F02A
:10DF30002DF8684603F053FB03A803F050FB2000C4
:10DF400002F075FA68E0C046702F0020442B0020D4
:10DF50005EA10200E42D00203C2B0020182B0020A5
:10DF6000082F0020E42E0020C02E0020F4240020E2
:10DF7000DC230020002400209C24002030240020EA
:10DF8000182400205424002078240020A4240020F9
:10DF9000EC240020C8240020442E0020102E002055
:10DFA00021C6010059C501005DC401008DC40100F6
:10DFB000D5C40100F5D5010001C4010015BB010065
:10DFC0003DC10100D5C2010051BB01003DBB0100B4
:10DFD00041D7010029BB010063A10200BC2E002033
:10DFE00076A102007FA1020028230020F29D0200FA
:10DFF0008EA102004C2E0020F5BA0100B02E0020A8
:10E00000C2A10200BC2C0020CFA10200CDCC4C3D0F
:10E010000080D843E2A1020007B0F0BD0A493800F1
:10E0200002F0BEFFF1B2FBE60749380002F0B8FF8C
:10E03000E1B210E7054C3800210002F0B1FF2100E9
:10E04000034802F0ADFFE7E7ACA10200F3A1020034
:10E05000BC2C002052DF70470C4B37B51B78002BCF
:10E0600013D00B4C2568002D0FD001A8FFF7F2FF4D
:10E0700005280AD0002804D000221100FDF73EFB3D
:10E08000F1E7019823689847EDE737BD242F00207A
:10E09000282F002010B5FFF7DFFF10BD70B5002559
:10E0A00004AC24780573A94205D10A4B0A4A2521FC
:10E0B0000A4808F0DDFA01600949920052589B00B5
:10E0C00002715B58A4008371635885604371022319
:10E0D000C37170BD04A2020066A2020012A2020077
:10E0E00014A90200037B002B04D1437383730361E3
:10E0F00001330373704700001FB50191A021002474
:10E100000068C900D2B24450012A10D0A24209D0FE
:10E11000032A0AD0074A8350074B019AC2500123B1
:10E1200043501FBD02221343F4E70422FBE70622FB
:10E13000F9E7C046540500002405000010B50400AE
:10E14000FFF7D0FFA1222368A179D200995061790D
:10E15000064A20009950217904329950044B1968DD
:10E160005A689B68FFF7C8FF10BDC0460C05000049
:10E17000402F0020A02200230168D2008B5003739F
:10E18000704770471FB5FFF7B7FF05B000BD704778
:10E190000368074A99501A00FC32D1680029FCD064
:10E1A000A321C90058580023C0B2D3607047C046AD
:10E1B0001C0500007047704707B58022074BD20549
:10E1C0001A6000229A6002321A71182315320093E5
:10E1D000034901330348FFF761FF07BD402F0020CB
:10E1E000003000402C2F00200160828070470068C2
:10E1F00070478088704737B5062504002A00002143
:10E20000684608F022FB2A00201D694608F0F2FA51
:10E21000431E9841C0B23EBD10B504310430062201
:10E2200008F0E8FA43425841C0B210BD10B5034CA3
:10E230000430210000F054FD200010BD4C2F0020C0
:10E2400010B5006800F00EFA10BD1FB50400FFF70E
:10E25000F7FF2000FFF7CFFF002807D0216801A8B3
:10E2600000F02FFA01A92000FFF7D6FF04B010BD7F
:10E2700010B50400FFF7E9FF002802D0206800F085
:10E280001AFA10BD10B50430062208F0C2FA10BD0B
:10E2900010B504300622002108F0D7FA10BD10B5E1
:10E2A00004000160FFF7F4FF200010BD807A704782
:10E2B000C0687047007C704700207047C368585C96
:10E2C000704770B50D00110002680400D6691A008D
:10E2D000B0470123A374A369002B02D021002800BA
:10E2E000984770BD70B5040008000D0009F07AF978
:10E2F0002368C2B22900DB692000984770BD000086
:10E30000054B10B5083304000360C068002801D035
:10E3100008F054FA200010BDA4A2020010B50400B9
:10E32000FFF7EEFF200003F07FFB200010BD10B5CB
:10E330000400807A031C904200D9131CDAB22374C3
:10E34000E06808F066FA63690120002B04D01A68BF
:10E35000210012681800904710BD0000F8B51D009C
:10E36000040017000430104A00F06EF80F4B083319
:10E3700023602B1C142D00D9142300212000A3722C
:10E38000E16021746774A174E17461610C2218303A
:10E39000DEB208F05AFA002D03D0300008F004FA7B
:10E3A000E0602000F8BDC04603280000A4A20200DF
:10E3B000407C7047C07C704703000800DA7451420B
:10E3C0004A4107329200D25810B5002A01D01900F4
:10E3D000904710BD0B2902D8063189000A507047BA
:10E3E00041617047704700697047007D704703695D
:10E3F000585C704710B5040003F016FB200010BDF8
:10E4000070B51500A42204009201043000F01CF83D
:10E41000044B256108332800236009F0E3F82075D8
:10E42000200070BDD4A202000120704770B5040026
:10E430001D00FFF793FF034B257408332000236072
:10E4400070BDC046F0A2020010B50400FFF7CCFE7C
:10E45000024A200013780133137010BD5E2F002094
:10E46000014B18787047C0465E2F002010B5C06879
:10E4700003681B6A984710BD08B4024B9C460438D9
:10E4800008BC60476DE4010010B5C06803685B6AB2
:10E49000984710BD08B4024B9C46043808BC60473E
:10E4A00089E4010010B5C06803689B6A984710BDF5
:10E4B00008B4024B9C46043808BC6047A5E4010040
:10E4C00010B5C0680368DB6A984710BD08B4024BFA
:10E4D0009C46043808BC6047C1E4010010B5C06820
:10E4E00003681B6B984710BD08B4024B9C46083864
:10E4F00008BC6047DDE4010010B5C06803685B6BD1
:10E50000984710BD08B4024B9C46083808BC6047C9
:10E51000F9E4010010B5C06803689B6B984710BD13
:10E5200008B4024B9C46083808BC604715E501005A
:10E5300010B5C0680468E46BA04710BD08B4024B76
:10E540009C46083808BC604731E5010010B5C0683A
:10E5500003681B6C984710BD08B4024B9C460838F2
:10E5600008BC60474DE5010010B5C06803685B6CEE
:10E57000984710BD08B4024B9C46083808BC604759
:10E5800069E5010010B5C06803689B6C984710BD31
:10E5900008B4024B9C46083808BC604785E501007A
:10E5A00010B5C0680368DB6C984710BD08B4024B17
:10E5B0009C46083808BC6047A1E50100030010B57F
:10E5C000FC335B6F002B02D05D30FF30984710BDED
:10E5D000030010B5FC339B6F002B02D05D30FF3081
:10E5E000984710BD0100100010B504681A005D3195
:10E5F00002AB1B78FF31646AA04710BD70477047BB
:10E6000070B5050004005D35FF3511002800FC34AD
:10E61000FFF738FEE36E002B01D02800984770BD4D
:10E62000030010B5FC335D301B6FFF300400002B7E
:10E6300000D098472000FFF72BFE10BD010010B559
:10E640005D311000FF311A00FFF7B6FE10BD01006A
:10E6500010B510005D311A0002AB1B78FF3100F0DD
:10E66000A5FA10BD10B5C0680368DB68984710BDF7
:10E6700010B5C06803681B69984710BD88300160F9
:10E68000704798300160704770B50600A436336853
:10E6900004000D00002B05D100F042FA800008F0C4
:10E6A00083F83060A834237832689B009D5023782B
:10E6B0000133237070BD10B5C0680368DB699847EB
:10E6C00010BD70B505000C000800FFF7CBFF2B0054
:10E6D0005D34FF3407CC07C3280070BD10B50400BB
:10E6E000FFF7C0FF20005D30FF30FFF784FD10BD55
:10E6F0000F2902D85A3189000A50704710B504001A
:10E70000FFF7AEFE800008F04FF823009C3318603E
:10E71000103303600C334360243383602033C360C1
:10E720000C3303610523A034237010BD3021002376
:10E73000F0B5AFB002AA5218137003008C331968F9
:10E740000400002900D1AAE008A800F00DFB08A8E9
:10E7500000F036FB022383429B415B4216AA14332E
:10E7600005001070537008A800F028FB010052202B
:10E770001A2602AB2A00C018761B08F04AF80125B9
:10E78000F6B2230088331968002929D008A800F0C0
:10E79000EBFA08A800F014FB431C0700B3421FDA91
:10E7A0001F20030050216B4302AA5218D75406239E
:10E7B000022F00D8043B684316AA12185370079022
:10E7C00008A800F0FBFA079B0100981C16AB18186C
:10E7D0003A0008F01EF8023E0135F61BEDB2F6B223
:10E7E000230090331968002916D01A79002A13D013
:10E7F000022E11D9531CB34201DB023EF2B21F2399
:10E80000FF276B4316A81A54C61802337770C01836
:10E8100007F0FFFF0135EDB2230098331E68002E8C
:10E820001BD0300008F0DEFEC0B21D283AD83022DE
:10E8300002AB9B181870302202AB9B181A78002389
:10E8400082425B41312002A9091808330B70013064
:10E8500002AB3100C01807F0DCFF27009C373B6893
:10E86000002B02D12000FFF749FF0023079323006C
:10E87000A0331B78079A93421ADD93003A689E589A
:10E880003000FFF7B6FC314B984205D1301E00D066
:10E89000301F211DFFF7A4FD079B0133E6E71C266F
:10E8A0000D006EE730211D2302AA52181370C2E733
:10E8B00000272300A8331B78BB4213DD2300A433B9
:10E8C0001B68BA00D6583000FFF793FC1F4B9842E4
:10E8D00006D1301E00D0301F2100083100F079F938
:10E8E0000137E6E7002B0BD021002931FF31200052
:10E8F000FFF7CAFE21003531FF312000FFF7C4FECB
:10E900003022210002AB9B18A8311B780978E068FF
:10E910005A1E9341026804912100A4310968DBB2B8
:10E9200003912100A0310978029121009C310968EE
:10E9300001910EA900919668290016AAB047E068D7
:10E9400003681B6D98472FB0F0BDC0460328000038
:10E9500070B506009C36336804000D00002B01D111
:10E96000FFF7CCFEA034237832689B009D502378BB
:10E970000133237070BD10B5FFF7EAFF10BD000032
:10E9800010B50400164B0360164B4360164B8360B2
:10E99000FFF76EFE2300A4331868002801D007F0AB
:10E9A0000DFF23009C331868002801D007F006FFF4
:10E9B00020003130FF3000F0B9F8601DFF30FFF764
:10E9C0009FFC2000D830FFF79BFC2000B430FFF7FD
:10E9D00097FC2000103000F0EFFE200010BDC04674
:10E9E0004CA30200B4A30200CCA3020010B50400A3
:10E9F000FFF7C6FF200003F017F8200010BD07B591
:10EA00006B46D9800633D83002221900FFF78FFCFD
:10EA100007BD0000334BF7B50360334B0400436080
:10EA2000324B00258360030010331800009301F07F
:10EA3000EDFA2300200088335D609D601D731D6129
:10EA40005D611D76DD611D6004331D772849AC30A2
:10EA500000F0C9F82300B43301930222132325499F
:10EA60000198FFF77BFC022320001A002249D830CE
:10EA7000FFF774FC2000214FFC30390000F0B3F8A0
:10EA80001F4E601D042331002022FF30FFF766FC7B
:10EA9000200029303900FF3000F09DF8200031308F
:10EAA00031002022FF3000F049F820005D302100C5
:10EAB000FF30FFF7F4FB2000009B6930E360102279
:10EAC0002900FF3007F0C1FE0E490198FFF70AFC4C
:10EAD00029002000FFF793FFE068210001F022FBEE
:10EAE0002000FEBD4CA30200B4A30200CCA3020090
:10EAF00020A3020025A302002AA302002FA30200E4
:10EB000034A3020039A3020010B50400FFF76CFB28
:10EB1000024A200013780133137010BD5F2F0020CC
:10EB2000014B18787047C0465F2F0020704710B522
:10EB3000040002F079FF200010BD000070B5040051
:10EB400015000430094AFFF7DFFF00212000084BC1
:10EB5000A57208332360E31CE1720422D9772830C0
:10EB6000616207F072FE200070BDC04603280000FD
:10EB7000ECA302000C307047C07A704710B5436AAE
:10EB80000100181E02D01A681268904710BD10B517
:10EB9000436A0100181E02D01A685268904710BDDF
:10EBA000032902D80A3189000A50704770B5040061
:10EBB000C3720D000C3011001A0007F02AFE01226A
:10EBC000E31CDA77A36A002B02D0210028009847C3
:10EBD00070BD41627047A02210B504009201FFF79A
:10EBE00093FF200010BDA02210B504009201FFF792
:10EBF0002BFC200010BD000013B504000123FFF71B
:10EC000015FC074B012223606B46D91D0023200011
:10EC10000B70FFF78CFB034B2000236016BDC04632
:10EC2000FC9702002C98020013B504000123FFF7A3
:10EC3000FDFB074B012223606B46D91D00232000FA
:10EC40000B70FFF774FB034B2000236016BDC0461A
:10EC50005C9802008C98020013B504000423FFF7AF
:10EC6000E5FB064B04222360002301A92000019349
:10EC7000FFF75DFB024B2000236016BDBC9802002D
:10EC8000EC98020013B504000423FFF7CFFB064BFA
:10EC900004222360002301A920000193FFF747FB12
:10ECA000024B2000236016BD1C9902004C99020003
:10ECB00013B504000823FFF7B9FB074B00222360BC
:10ECC000002369460092019320000822FFF72FFBE2
:10ECD000024B2000236016BD7C990200AC99020013
:10ECE000F0B51E4C8BB005000E0001A8210002F00B
:10ECF000BEFC210004A802F0BAFC05242B5D0F2BFA
:10ED000003D8174901A802F082FD1022295D07A847
:10ED100002F0CCFC07A904A802F02DFD07A802F020
:10ED20005EFC04A901A802F06CFD671E002C06D051
:10ED30000C4901A802F06BFD3C007B1CDED10023D6
:10ED40001222310001A802F092FD04A802F047FC53
:10ED500001A802F044FC0BB0F0BDC04696A9020029
:10ED600023A302009A9E0200F7B50023050001AE1E
:10ED70002960037508000F003380B37008F032FC7F
:10ED8000441E002C18DB2B7D0F2B15D83A5D2D2A45
:10ED900002D10134023CF4E73B19013B1B7872704D
:10EDA000002110223000337008F0BAFC2B7DEA18E5
:10EDB000013310712B75EDE72800FEBD043070475C
:10EDC000007D704771DF704772DF704773DF7047F7
:10EDD00075DF704776DF704777DF704778DF704701
:10EDE0007ADF70477CDF70477EDF70477FDF7047D8
:10EDF00086DF704790DF704792DF704796DF70477D
:10EE000098DF704799DF7047A0DF7047A2DF704737
:10EE1000A3DF7047A4DF7047A6DF7047A9DF704704
:10EE200060DF704761DF704762DF704763DF704704
:10EE300053DF704710DF704711DF70475C30007898
:10EE4000431E9841C0B2704702000300002030B555
:10EE50006D321478844213DD1D6F0201AA18156803
:10EE60008D420BD10020D189814206D0127B9207BE
:10EE700003D574331B780130584030BD0130E9E7C9
:10EE80000020FAE70300002270B56D331C7894422D
:10EE90001BDD056F1301EB181D688D4213D1002295
:10EEA000D98991420DD0197B89070AD50100012427
:10EEB00074310C70D989008FFFF7A0FF42424241A4
:10EEC000D2B2100070BD0132E1E70022F9E7020082
:10EED0000300002030B56D32147884421BDD1D6FB5
:10EEE0000201AA1815688D4213D10020D1898142F0
:10EEF00006D0127B110704D574331B7801305840BB
:10EF000030BD5207FCD55C331878431E9841C0B21F
:10EF1000F6E70130E1E70020F2E7F0B587B0040042
:10EF200001936D3006780020864230DD276F0501A1
:10EF30007D192F688F4228D10020EF89874222D087
:10EF4000297B0C2529421ED026005C363578854267
:10EF500019D0082319404B424B4103A901330B70D0
:10EF60006B469B888A60CB80230001227433013D6D
:10EF70001A7048704F8088803570208FFFF740FFEF
:10EF800043425841C0B207B0F0BD0130CCE7002089
:10EF9000F9E70300002230B56D331C78944212DD8E
:10EFA000056F1301EB181D688D420AD10020DA8924
:10EFB000824205D0187B30231840431E9841C0B2CE
:10EFC00030BD0132EAE70020FAE70300002230B545
:10EFD0006D330400187885B090422BDD256F130146
:10EFE000EB181D688D4223D10020DA8982421DD0A2
:10EFF00030211B7B0B4219D020390B4059424B4129
:10F00000694601334B800123881CD21801A94A802C
:10F01000802292020292220074320B801370886068
:10F02000208FFFF7EDFE43425841C0B205B030BD1E
:10F030000132D1E70020F9E710B503681B6C98474F
:10F0400010BD0300002230B56D330400187885B080
:10F05000904226DD256F1301EB181D688D421ED1ED
:10F060000020DA89824218D0197B3023194214D04B
:10F070006B4658809D1C012301A9D2184A8080222A
:10F0800092020292220074320B8013708D60208FE6
:10F09000FFF7B6FE43425841C0B205B030BD013261
:10F0A000D6E70020F9E70B0010B527331ADB0B0079
:10F0B0001D331ADB0B00133319DB0B000F3318DB86
:10F0C0000B000B3317DBCB1D17DBCB1C17DBC81773
:10F0D000401AC00F800040B2FFF77EFE4342584105
:10F0E000C0B210BD28204042F5E71E20FBE71420E7
:10F0F000F9E71020F7E70C20F5E70820F3E70420F4
:10F10000F1E710B51321008FFFF764FE10BD13B5B2
:10F1100004006846FFF756FE2069002805D06A46BD
:10F1200003680132DB692100984713BD37B500231E
:10F13000050001A80193FFF77BFE2C69002C0ED07F
:10F14000019807F035F90022054B06F025FB07F082
:10F15000EDF92368021C1B6A29002000984737BD7F
:10F160000000D03F704710B5040086B0182200217F
:10F17000684607F06AFB0023A27A9A4200D1033363
:10F180006A461370A0880A21000104F0F3FA6B4666
:10F1900018826846FFF71AFE06B010BD0300F0B5EE
:10F1A0005D330C001A7806000023142193B09A42B4
:10F1B00067DD0F005F43306EC7193868A0425ED12B
:10F1C0002000FFF7F5F8012318425AD07B68002B86
:10F1D00057D033003100333302931D7814312A00A5
:10F1E0000AA807F016FB236820001B69984704351E
:10F1F0002818C3B2039300230193039B1F2B3BD812
:10F200007868FEF7F4FF010004A8FFF7ADFD23685E
:10F2100020001B6998471822029B03301D7804AB1D
:10F220009B1858550AAB5B19023A04A85A70FFF7AD
:10F23000C5FD02350AAB01000222581907F0E9FAB0
:10F24000029B20001D780AAB04355D192368DB683A
:10F250009847236807001B6920009847390002007F
:10F26000280007F0D6FA002303991A000AA8FFF72E
:10F27000ABFD012374630193019813B0F0BD01331A
:10F2800095E70023F7E70A21F0B5D9B004ABC91818
:10F290008E2311AE5B00040030000B80FFF7C2FD2F
:10F2A000011E0ED13388302B00D190E139D8112BBB
:10F2B00000D1BDE007D8012B00D182E0102B00D196
:10F2C00085E059B0F0BD142B00D10DE1192B00D110
:10F2D00019E1132BF5D1E068002800D1FFE000F020
:10F2E000BBFE002800D0FAE007AD0522002128006F
:10F2F00007F0ABFA0122302313432B7007230021C0
:10F30000EA702A006B700933AB70A36D0D910993FD
:10F310000E910F910A910B91208F09ABFFF766FDBB
:10F32000CFE7382B00D11DE22AD8322B00D19BE148
:10F33000362BC6D12300743318700623F288FF33AE
:10F340009A4200D0F1E1E368002B00D1EDE109AD74
:10F350000522280007F079FA0123EA7829001A43E8
:10F36000EA702A78134370229343403A13432B7078
:10F3700007236B700933AB70208FFFF735FDA0E7D3
:10F38000502B00D1D4E0522B00D11AE1392B00D000
:10F3900097E7B37BB589022B03D1208F2900FFF7B4
:10F3A00031FD23006D3319780023994200DC88E792
:10F3B000206F1A018218D089A84200D1C3E101331D
:10F3C000F3E75C342378327A9B18237079E7B088AE
:10F3D00009AD20872900FFF727FD23002A785C3339
:10F3E0001A702069002806D03D22036804A952182B
:10F3F0001B6821009847E288052A0DD9C821238976
:10F4000009018B4208D86B80C8235B042A800A93C9
:10F41000208F2900FFF7DCFC230064331B78002BCE
:10F4200000D14EE700220121208FFFF7E3FC48E7DF
:10F4300001235B422387230005005C3318702300FF
:10F440005D331B78AB4218DD142600276E43236E14
:10F450009E19377477743068FEF7ACFFB8420AD053
:10F460002069B84207D0036832685B6921009C4676
:10F470003B006646B0470135E1E72069002803D02C
:10F48000036821005B68984700250C26230064333D
:10F490001B78AB420ADD30006843A36E04221818C3
:10F4A0000830002107F0D1F90135EFE700232500EE
:10F4B00018006D352A789A4208DD216F1A018918E3
:10F4C0000873216F01338A18D081F3E723000022EB
:10F4D00074331A70236820009B699847F1E6002373
:10F4E000208F1A00852119E7A56D338A6A8A208F3B
:10F4F0009A4205D10B000A002900FFF779FCE0E6EB
:10F500000B000A00F9E7327A002A00D0D9E6E06859
:10F51000002804D021001C233C3100F0B2FD2069FA
:10F52000002800D1CDE603689B6821009847C8E613
:10F530000500F388049323005D331B78AB4200DCA5
:10F54000BFE614276F43236E049ADF193B89934269
:10F550000ED12069002800D1B3E6327C0368009206
:10F560001D69462304AA9B183A682100A847A8E60B
:10F57000BB89049A934222D10121F27CB37C12020E
:10F5800013431BB29AB20B403B7453080B407B747D
:10F5900003231A40531E9A413868D3B20393FEF7EF
:10F5A00009FF039B98420AD02069002800D188E611
:10F5B00003683A685D692100039BA84781E601352D
:10F5C000B9E7208F0B000A00FFF728FC79E6F588E1
:10F5D000002D18D0230005000C2164331A78AA42AC
:10F5E00000DC6EE60B006B43A06EC3181889002880
:10F5F00038D05889002835D02200083319006C32E1
:10F600001570208F72E04227B389039304ABFF1873
:10F61000039BAB421DDD230064331A7800239A421A
:10F6200012DD0C205843A16E0818B9788C468179F8
:10F630008C450CD139888C4681888C4507D108309F
:10F64000391D042207F0E5F801350837E0E70133FA
:10F65000E5E7039B208FDB00F618B189002201311A
:10F6600089B2E2E60135BAE72000F1886C30027811
:10F670000C2300293DD15A43A16E8A18926804A92F
:10F680000992422252180A21B589049069438918C7
:10F69000039105930399914226D0260000206D36F0
:10F6A000317881421BDD049F059B3F78216F5F43CA
:10F6B0000501A36E4919FF584B689F420DD19378FD
:10F6C0008F7ABB4209D113880F89BB4205D11779C4
:10F6D0000F73236F11895D19E9810130E0E710890B
:10F6E00009A908800A32D5E7208F09A9FFF784FB12
:10F6F000E7E521000132534364310D7895420DDD79
:10F70000A16EC9180E89002E05D04E89002E02D098
:10F710000270083175E701320C33EFE720690028E9
:10F7200000D1CEE50368DB68FFE623006D3319786E
:10F730000023B089994200DCC3E5256F1A01AA189D
:10F74000D58985420CD12069002800D1B9E5317CEA
:10F75000036800919D69462304A95B18126804E7B9
:10F760000133E7E72300743318700623F288FF3370
:10F770009A4200D0A5E5E368002B00D0E7E5A0E5BC
:10F7800010B50400FFF758FB206F002801D007F0E8
:10F7900015F8A06E002801D007F010F8206E0028A0
:10F7A00001D007F00BF8220000235D326D34137096
:10F7B000D371237010BD000010B50400044B083352
:10F7C0000360FFF7DDFF200000F096FC200010BD75
:10F7D00010A4020010B50400FFF7EEFF200002F0B5
:10F7E00023F9200010BD000013B56C46128861801B
:10F7F000228001006A4602480193FFF70BFB16BD09
:10F80000FFFF0000F0B5F3B01C007AAB1B780600D8
:10F8100007937CAB1B78019115009B4904220EA82D
:10F82000099306F0F6FF00210EA8FFF703FB262040
:10F83000964B12220F930AAB0021C01807F005F86F
:10F840000A2313AF0FA93B803800093B3B733B727F
:10F85000FFF7E6FA8E4B11A81193C8235B041293AD
:10F86000FFF7BEFA0020FFF7B7FA81235B00B382EF
:10F87000FC3BB3753300032233331A70019B002B1A
:10F8800021D0002D1FD01F23019A5343EB18019361
:10F890003700019B33373878AB4214D02B783218BD
:10F8A000013313756B780230C0B253753870143061
:10F8B0002A78A91C301806F0ACFF2A783B781F354F
:10F8C0009B183B70E4E7002C1ED0789B002B1AD0CD
:10F8D0001F277C431D001B1900240193019BAB4291
:10F8E00012D02F782AA87B1C03556A78031902349A
:10F8F000E4B25A700019A91C3A003C1906F089FFBD
:10F90000E4B21F35EAE7789C3300300033331978CE
:10F910002AAA23001430FFF757FA0020FFF75EFAF7
:10F920000024079BA3420EDD799AA300D058FEF76E
:10F9300060FC584B984204D132005D321378013399
:10F9400013700134EDE733005D3318780338C0B22B
:10F9500018701423584306F027FF00230BAA1380C6
:10F96000799A30660392029308930593079B029A53
:10F97000934200DC11E2039B1D682800FEF737FC70
:10F9800001001DA8FFF7F0F91DA8FFF717FA040002
:10F990001DA8FFF715FA02282BD1627823781202EE
:10F9A00010A913430B8001238B702800FEF721FC64
:10F9B000A0239B01984231D12800FEF718FC36495C
:10F9C00007F0FEFD00280DD02800FEF710FC33499B
:10F9D00007F0F6FD002805D00BAA10A90120FFF7BB
:10F9E00013FA0895029B01330293039B043303939C
:10F9F000BCE732AF21001022380006F00AFF627B1C
:10FA0000237B1202134310AA138000231A21BB8107
:10FA10000AABC9183800FFF709FAC6E72800FEF755
:10FA2000E8FB1C4B984200D032E12F1E00D02F1F64
:10FA30003C1D2000FEF7DBFB194907F0C1FD002843
:10FA400011D1112332AC23703B683800DB68984732
:10FA50003B6805001B6938009847290082B22000E6
:10FA6000FFF7C0F9BEE72000FEF7C1FB0D4907F024
:10FA7000A7FD002818D13B683800DB68984700884C
:10FA8000FFF7ACF9AEE7C046FCA3020080200020DF
:10FA9000280050000328000020A302002FA302002A
:10FAA00025A302002AA302002000FEF7A0FBCD49F7
:10FAB00007F086FD002895D03800FEF779FC3B68FA
:10FAC00004901B69380098470AABD880142300259E
:10FAD000059A29005A43336E01929F50336E23A832
:10FAE0009B181D74336E9B185D74336E9B18089AB7
:10FAF0005A601C2206F0A9FE01226421049B934354
:10FB00000AAA521813703023049A1A420FD00CAC70
:10FB100003222900200006F098FE0622B24B238023
:10FB2000A37893431A0002231343A37028940DACC7
:10FB300003220021200006F088FE3223049A1A4294
:10FB400004D0F368002B52D0212323700C23049A95
:10FB50001A4205D0F2680DAB002A4AD021225A7011
:10FB600006220DACA378380093431A0002231343F6
:10FB7000A3703B689B69984701210122A3788243C7
:10FB80008B431343A370029B5B180493039B069360
:10FB9000049A079B93423CDD069B5D682800FEF7B4
:10FBA00028FBA4239B01984233D12C1E00D02C1F8C
:10FBB000251D2800FEF71BFB8C4907F001FD0028DE
:10FBC00019D1236820009B68984723682490DB683C
:10FBD00020009847236823AD2881DB6820009847E0
:10FBE0006881049B01330493069B0433CFE7112300
:10FBF000ABE71122B3E72800FEF7F9FA7C4907F0DA
:10FC0000DFFC0028EDD1236820009B6898472690F0
:10FC1000E7E742200AAB0A220021C01806F015FED1
:10FC200010AB18AD18930DAB6B600AABDB883800D6
:10FC30002B813B6800249B689847019A336EA8810A
:10FC40009B1808332A0023A920002C61FFF7DEF857
:10FC50000AABDB88A34216D00AAB9A1D1388A342D5
:10FC600008DD3B6821005B693800984732ABE054FF
:10FC70000134F1E7316E019B8C4663441889002101
:10FC800032ABFFF7B1FD059B0133DBB20593A9E66B
:10FC90002800FEF7AEFAA4239B01984200D0A1E60B
:10FCA0002C1E00D02C1F251D2800FEF7A0FA4F495E
:10FCB00007F086FC002800D194E62800FEF797FAAA
:10FCC0004C4907F07DFC002800D18BE62800FEF7A8
:10FCD0008EFA494907F074FC002800D182E628001A
:10FCE000FEF785FA424907F06BFC002800D179E65F
:10FCF00023682000DB68984723AD0AAB988118AFD2
:10FD000014220021280006F0A0FD03220021380063
:10FD100006F09BFD0223BB7023682000DB68984738
:10FD20000AAB9B8980B2C01A0121421E9041BA7869
:10FD30008A431043F268B870002A25D021223A7015
:10FD40002B8110AA23682A6018AADB686A60200049
:10FD500098470027A8810BAA23A938002F61FFF735
:10FD600057F80DAB1B88BB4200D13BE63D000DAA06
:10FD70001388AB420ADD236829001B6920009847DD
:10FD800032ABE8540135F2E71122D8E70BAB188803
:10FD9000002132ABFFF728FD24E60025099BAB428A
:10FDA0002ED01C002F00023CE4B22500BC4227DD0F
:10FDB0007B9ABB00D5582800FEF71BFAA0239B01B5
:10FDC000984206D132006432137801331370013740
:10FDD000EBE72800FEF70DFA084B9842F7D1320006
:10FDE0006D32F1E734A30200111100005A960200AF
:10FDF00000A4020005A402000AA4020003280000D7
:10FE000033000C2064331B78AD00584306F0CCFC63
:10FE10003300B0666D331878000106F0C5FC7B9F97
:10FE200030677B1904930023029301930393049B8F
:10FE3000BB426ED03C682000FEF7D9F9010032A821
:10FE4000FEF792FF32A8FEF7B9FF050032A8FEF7D1
:10FE5000B7FF022825D16A782B7812021DA9134317
:10FE60000B8001238B702000FEF7C3F9A0239B01B8
:10FE700098422DD10C20019B1D9A5843B36E00214E
:10FE80001C50B36E1B185A60B36E04221818083049
:10FE900006F0DBFC019B03940133DBB201930437D2
:10FEA000C5E72900102223A806F0B3FC6A7B2B7B50
:10FEB0001202134370211DAA138000230AAA5218AC
:10FEC000138022390AABC91823A8FEF7AFFFCAE78F
:10FED0002000FEF78EF9194B9842E0D1221E00D087
:10FEE000221F029B316F1B01CA50326F0399D21837
:10FEF0005160326F1D99D21891600021326FD21873
:10FF00001173326FD318D981029B0133DBB2029394
:10FF1000C5E7F06800280AD000F09EF8002806D057
:10FF200031001C2300223C31F06800F0B9F833683E
:10FF300030009B69984773B0F0BDC04603280000AD
:10FF40000123F0B5040000278BB002910193230038
:10FF50005D331B78BB4255DD14257D43236E5D194F
:10FF60002E68029B9E4247D1626B934204D1236864
:10FF700002995B6A20009847336830001B699847F4
:10FF800004ABD8802B8930000393336806AEDB685E
:10FF9000984704AA0300063200210398FFF724FCC7
:10FFA0000A2004ABC0180E22002106F04EFC2B895B
:10FFB000338004AB0633B3602B7C002B0CD02200C3
:10FFC0005C321378002B19D0013B13700123B370FE
:10FFD000208F3100FEF720FF6B7C002B0CD022001D
:10FFE0005C321378002B0BD0013B13700223B370EB
:10FFF000208F3100FEF710FF0137A8E70193EBE7F0
:020000022000DC
:100000000193F9E701980BB0F0BD000010B50400B2
:1000100000F07AF80D4B00210833236023003333BE
:10002000197001235B422387200023003C305C339E
:1000300061631C22198021661972A16619822167E9
:100040001976A06506F001FC200010BD10A4020086
:1000500029DF704728DF7047036818680130431EA6
:100060009841C0B2704780235B0510B519690068DC
:1000700003F0F6FA04002000FFF7ECFF1128FAD095
:1000800010BD70B51C0005000E00FFF7ECFFA408C2
:10009000220031002868FFF7DBFF1128F8D070BD7F
:1000A000002210B500689A4203D284588C50043262
:1000B000F9E710BD704770477047002070477047E0
:1000C00070470020704700207047002070470020D4
:1000D00070470020704700207047002070470020C4
:1000E00070470020704700207047002070470020B4
:1000F0007047704770477047704710B5040001F0B3
:1001000093FC200010BD0000054B01220833036062
:1001100064234360002382720381C36003617047DC
:1001200074A40200016170477047704770477047C0
:1001300070474171704781717047017170470000CD
:1001400010B5034C0171083404604271837110BD15
:10015000D8A4020070473220704770B50D0004002B
:1001600000F04DFD01226A405242D2B243212000EC
:1001700000F035FE70BD70B50D00040000F041FDCB
:100180002A003F21200000F02AFE70BDF7B5036869
:100190000400DB680F00150098470190002815D077
:1001A00026002A36002F0DD0002D0BD033782A7868
:1001B0009A4201D933782B7021002A782B313800EC
:1001C00006F027FB00235D34337023700198FEBDD9
:1001D00070B5040015001A0000F0D0FD0122054B97
:1001E00020002360A31DDD7723331A70024BE384C4
:1001F00070BDC04684A70200FF01000010B5802238
:10020000072100F0ECFD012001F078FB10BD10B5D6
:10021000022100F0C3FD10BD70B5040004A80578EC
:10022000032003401343802252421A430A43D2B2AE
:100230000F21200000F0D3FD2A001021200000F043
:10024000CEFD0F21200000F0A9FD0306F9D51121F4
:10025000200000F0A3FD70BD37B51500202204007A
:100260000A43122100F0BBFD2A001321200000F0F8
:10027000B6FD0021200000910B000A00FFF7CCFF23
:100280003EBD0000F7B50E1C05004E49301C009223
:10029000002403F0ABFB0700A04270D14A49301C98
:1002A00003F0B8FB3C00002869D14849301C03F03A
:1002B000BBFB0021002864D0009803F097FB071EC9
:1002C0005DD1009806F0E0F8414A424B0090019160
:1002D00003F066FB3C00002851D1FC21301C89054D
:1002E00003F07EFF00223C4B061C0098019905F0AC
:1002F00053FA3A4B002204F045FE03F0E1FB602381
:10030000C4B23749301C009303F092FD061C03F081
:10031000A5F8071C03F0BCFB009B18380343DBB2B5
:10032000391C301C009304F08DF82E4903F058FF5F
:1003300003F0AEFB002286B27321280000F04FFDCF
:1003400000227421280000F04AFD009A752128003F
:1003500000F045FD320A7621280000F040FDF2B29F
:100360007721280000F03BFD22002A21280000F020
:1003700036FD2800FFF74BFF0124C008844320000E
:10038000FEBD009803F032FB071EF8D1009806F07E
:100390007BF80F4A144B0090019103F001FB3C00E5
:1003A0000028ECD10098019900220B4B05F0F4F9DC
:1003B0000E4B002204F0E6FD03F082FB4023C4B2A2
:1003C0009FE7C04600007043000070440000F04307
:1003D000666666666666D43F80842E4100889340D8
:1003E0000000204100007A476666C43F00888340D1
:1003F00010B50A00072100F0F2FC10BD10B503791A
:100400000400012B04D00021FFF7F2FF0123237128
:10041000012010BD037910B50400022B06D00300A3
:100420000833D97FFFF7E4FF0223237110BD03795E
:1004300070B50400042B07D0030004250833D97FCE
:100440002943FFF7D5FF257170BD10B504005D3459
:100450002378DBB2002B04D10279032A03D0FFF703
:10046000E6FF2378DBB2180010BD082210B50A435E
:100470006D2100F0B4FC10BD70B505000C000A78C9
:100480001C2100F0ACFC627828001F2100F0A7FCC2
:10049000A21C28000623202100F0FBFC22000323DD
:1004A000280008322C2100F0F4FCE27A28005821C0
:1004B00000F095FC227B2800692100F090FC2200CE
:1004C00028000D3205236E2100F0E3FC70BD000012
:1004D00010B5040086B000201B290BD8122251430E
:1004E000054B01A8591806F094F9200001A9FFF75F
:1004F000C3FF012006B010BD0EA5020010B50A0012
:10050000342100F06CFC10BD10B513000A00362138
:1005100000F0BFFC10BD70B5050014002A352A7824
:10052000030012190020322A0ADC2A782B3398188B
:10053000220006F06EF901202B78E418E4B22C704A
:1005400070BD10B5040000232A34237034342370A6
:100550009A4202D0FFF7DFFF0300180010BD70B50C
:10056000030004002A335E3421781A78914214D2B1
:100570001A782378D21AD2B2151C3B2A00D93B250F
:1005800002002378EDB22B32D2187F212B0000F02D
:1005900080FC23785B19DBB2237070BD10B50400BA
:1005A0000322082100F01BFC00220821200000F09B
:1005B00016FC10BD10B504000222082100F00FFC4B
:1005C00000220821200000F00AFC00235D34237083
:1005D00010BD10B503790400032B0BD003000821D4
:1005E0000833DB7F1943FFF703FF2000FFF7E2FF2B
:1005F0000323237110BD10B50400FFF7B0FF2300E3
:100600002A331A783E21D2B2200000F0E8FB200005
:10061000FFF7DFFF10BD022303710300002210B5B6
:100620005E331A70FFF7E7FF10BD70B50400036872
:100630000D001B6A1600984723682000DB6A984764
:10064000002802D10025280070BDE27A3A2120005E
:1006500000F0C5FB227B3B21200000F0C0FB627B49
:100660003C21200000F0BBFBA27B3D21200000F0DC
:10067000B6FB290032002000FFF763FF051EE1D022
:100680002000FFF7B8FFDEE7F0B585B003AE022328
:1006900032000321040000F0D3FBB64DB649280018
:1006A00000F059FC10223178280000F0EAFCB34930
:1006B000280000F050FC71781022280000F0E5FCC2
:1006C00033785B0703D5AE49280000F069FC337826
:1006D0009B0703D5AB49280000F062FC3378DB07A9
:1006E00003D5A949280000F05BFC33787F2B03D9A0
:1006F000A649280000F054FC33789B0603D5A44992
:10070000280000F04DFC33785B0603D5A149280092
:1007100000F046FC3378DB0603D59F49280000F043
:100720003FFC33781B0703D59C49280000F038FCB8
:1007300073785B0703D59A49280000F031FC737881
:100740009B0703D59749280000F02AFC7378DB0744
:1007500003D59549280000F023FC73781B0703D5C7
:100760009249280000F01CFC2000FFF750FD1023E8
:10077000034007000193002B03D08D49280000F0AF
:100780000FFC3B0603D58B49280000F009FC7B06D3
:1007900003D58949280000F003FCBB0603D587492F
:1007A000280000F0FDFB019B002B03D084492800AA
:1007B00000F0F6FB3B0703D58249280000F0F0FB70
:1007C0007B0703D58049280000F0EAFBBB0703D074
:1007D0007E49280000F0E4FBFB0703D57C49280094
:1007E00000F0DEFB019B002B03D07149280000F0D4
:1007F000D7FB3378002B06D17378002B03D17549D2
:10080000280000F0CDFB33787F2B09D92000FFF7BB
:10081000C5FE2379032B00D094E02000FFF7FBFEF8
:1008200033789B0602D52000FFF799FE3378DA066D
:1008300002D522002A3212781B0704D52368200033
:100840000433DB6F984773781B0704D523682000B7
:100850000833DB6F98473278530705D5E38A0133B5
:100860009BB2E3820223237102231A4235D04B212B
:10087000200000F093FA250007002A3532286CD8B2
:100880002B78834269D8220029782B782B32C31A1F
:100890005218DBB27F21200000F0D2FA472120005D
:1008A00000F07CFA4821E071200000F077FA49213D
:1008B0002072200000F072FA4A216072200000F0DD
:1008C0006DFAA072A38A012201339BB2A382022394
:1008D0002F70237123005D331A703378DB071AD52C
:1008E000638A002201339BB2638223002A331A7089
:1008F00033331A702000FFF75DFE02232371237942
:10090000042B08D0230004250833D97F2000294375
:10091000FFF76EFD257103AB5B785B0627D52621BB
:10092000200000F03BFA4008783840B2208200F006
:10093000CDFF20662000FFF73DFE220000232A3273
:10094000137012E02379042B00D069E72300002202
:100950002A331A7033331A7062E7638A01339BB209
:1009600063820223237100232B705D34237005B052
:10097000F0BDC046702F0020F4A6020018B102009E
:10098000FFA6020006A702000EA7020017A702009A
:100990001FA7020029A7020031A7020036A7020004
:1009A0003AA702003EA7020046A702004AA702009B
:1009B000D59B0200EE9B0200069C02001F9C0200D9
:1009C000389C0200529C02006C9C0200869C020033
:1009D0009C9C02004EA70200034B10B5186800282B
:1009E00001D0FFF751FE10BD642F0020034B10B55E
:1009F0005868002801D0FFF747FE10BD642F002083
:100A0000034B10B59868002801D0FFF73DFE10BDDC
:100A1000642F002010B50400002909D015220B21F5
:100A200000F0DDF912220C21200000F0D8F910BDF1
:100A300012220B2100F0D3F91522F4E7F0B587B0AC
:100A40000400009100F076F9051E03D1002528006E
:100A500007B0F0BDA31D0193DE7F2000310000F040
:100A600040FA2000FFF7CAFB27000021200000F019
:100A700095F9283738700738012815D9514D524C4F
:100A80002900200000F067FA290003A800F0EFFD1C
:100A900003A8009B984703A800F0A1FD39780A221B
:100AA000200000F0F2FAD1E780220721200000F0B8
:100AB00096F902270421200000F070F93842F9D09D
:100AC000019B0021D87F01F0AFF8B722052120005B
