:020000021000EC
:10B000000040002075150200B5150200B7150200BA
:10B010000000000000000000000000000000000030
:10B02000000000000000000000000000B915020050
:10B030000000000000000000BB150200BD1502006A
:10B04000BF150200BF15020021190200BF15020042
:10B05000BF15020000000000351A0200BF150200F3
:10B06000BF15020065200200BF150200BF150200D7
:10B07000BF150200BF150200BF150200BF15020078
:10B08000BF150200ED1D0200BF150200BF15020032
:10B09000BF150200BF150200DDE30100BF1502006D
:10B0A000BF150200BF1502000000000000000000F4
:10B0B0000000000000000000000000000000000090
:10B0C00010B5064C2378002B07D1054B002B02D07E
:10B0D000044800E000BF0123237010BD2823002096
:10B0E0000000000064C30200044B10B5002B03D025
:10B0F0000349044800E000BF10BDC0460000000046
:10B100002C23002064C30200164B002B00D1144BEB
:10B110009D46402292029A1A924600218B460F4683
:10B120001348144A121A0CF01AFB0F4B002B00D0D4
:10B1300098470E4B002B00D09847002000210400B8
:10B140000D000D48002802D00C4800E000BF0CF0B4
:10B1500071FA2000290006F0BDFE0CF045FAC04649
:10B160000000080000400020000000000000000077
:10B1700028230020F02A002000000000000000002A
:10B1800010B5040003F012FCC6235B00E058043342
:10B19000E3581430C01A142109F072FA080010BDE7
:10B1A00008B4034B9C46034BC01A08BC6047C0461A
:10B1B00081B101007801000010B5040003F0F6FB36
:10B1C000C823C6225B005200E358A258934204D021
:10B1D000E4189534FF34207810BD01204042FBE78D
:10B1E00008B4034B9C46034BC01A08BC6047C046DA
:10B1F000B9B101007801000070B50400C82503F062
:10B20000D5FBC6236D005B006059E358984209D016
:10B210000130142109F034FA615164189534FF3477
:10B22000207870BD01204042FBE7000008B4034BCA
:10B230009C46034BC01A08BC6047C046F9B10100E8
:10B240007801000010B503F0EDFB10BD70B50400EF
:10B250000D0003F0ABFB87239B00E01803F04EFAD0
:10B260000026B0420FD0D4214900635801365A1C41
:10B27000E318AD33FF3362501D70142A03D12368E5
:10B280002000DB6E9847300070BD000008B4034B0F
:10B290009C46034BC01A08BC6047C0464DB2010033
:10B2A00078010000F7B5040003F058FD2300FA22EE
:10B2B00000257933FF3392005D609A60394B260098
:10B2C0002360394B394A6360394BC136A360230090
:10B2D000FF36FC33DA673000364903F028FE2000E1
:10B2E000354FC9303900354AFF3003F02DFA2300BD
:10B2F000E133FF330193042214233149019803F011
:10B30000D1F981239B003900E0182E4A03F01CFA82
:10B3100087239B00E018102214232B4903F0C2F965
:10B3200090239B00294A3900E01803F00DFAD4233A
:10B330005B00E550183BE550043BE550043BE5500D
:10B34000234B310020001C6003F0B9FC2100CD31FB
:10B35000FF31200003F0B3FC300003F0ECF80100F3
:10B36000200003F02FFB2100E5312000FF3103F026
:10B37000A6FC82239B00E118200003F0A0FC154AE4
:10B380002900019803F0CAF988239B00E1182000E6
:10B3900003F095FC91239B002000E11803F08FFC43
:10B3A0002000FEBDFCA502007CA60200BCA6020097
:10B3B00094A6020044A502006EA5020069A5020041
:10B3C00073A5020098A50200B2A50200D7A502004D
:10B3D000442300203DB401000FB410B5029803F0DF
:10B3E00049FB10BC08BC04B0184710B5040006F0B7
:10B3F000D7FCC4235B00E3586433984203D323682B
:10B400002000DB6E9847200003F0D0FA10BDF8B59D
:10B41000C62705000C008E187F00B4420CD0EB59F3
:10B420001421581C09F02CF9E95169182378953139
:10B43000FF310B700134F0E7F8BD0000094B70B527
:10B440001D680B680C000800DB689847236806003D
:10B450001B6920009847310002002800FFF7D7FF42
:10B4600070BDC0464423002070B5D4256D004259FC
:10B470000400002A12D001008723AD319B00C018C0
:10B48000D2B2FF3103F0F7F806F08AFCC4235B0068
:10B49000E05000232000635103F088FA70BD0000E3
:10B4A00008B4034B9C46034BC01A08BC6047C04617
:10B4B00069B4010078010000144B10B50360144B0F
:10B4C000144A4360144B040083600300FC33DA67C2
:10B4D00090239B00C01803F029F987239B00E018F4
:10B4E00003F0B2F881239B00E01803F01FF920005D
:10B4F000E130FF3003F0A8F82000C930FF3003F03E
:10B5000015F9200003F0E0FB200010BDFCA50200AF
:10B510007CA60200BCA6020094A6020010B504009E
:10B52000FFF7CAFF200006F0E9FC200010BD000074
:10B5300010B5024802F0D0FF10BDC0461C2A002002
:10B5400010B5024802F0DAFF10BDC0461C2A0020E8
:10B5500010B5024802F0D3FF10BDC0461C2A0020DF
:10B5600010B5024802F0AAFF10BDC0461C2A0020F8
:10B5700010B508300EC8024802F0A8FF10BDC04642
:10B580001C2A002010B5024802F0A5FF10BDC046DD
:10B590001C2A002010B5024802F097FF10BDC046DB
:10B5A0001C2A002010B5164CA14208D8802189041D
:10B5B000013A0160511E8A418260037110BD114C35
:10B5C000A14202D88021C904F2E70F4CA14202D85F
:10B5D00080210905ECE70D4CA14202D880214905E4
:10B5E000E6E70B4CA14202D880218905E0E7094C2F
:10B5F000A14202D88021C905DAE780210906D7E7F0
:10B6000048E8010090D0030020A1070040420F004D
:10B6100080841E0000093D00F0B587B000900479D9
:10B62000042C3BD0032C3BD0022C3BD0013C63428A
:10B630005C411F4B64421C40E418009B02275B796D
:10B640000193009B9B79002B0AD00027012B07D088
:10B650000337022B04D0033B1F007B1E9F410137A1
:10B6600003AD3B00002221002800FFF79BFF2A00CA
:10B67000009B083343CA43C3009E019B0836012B3D
:10B6800012D13B00002221002800FFF78BFF0ECDD6
:10B690000EC6084802F0F6FE07B0F0BD064CCCE737
:10B6A000064CCAE7064CC8E73B000122EBE7C04660
:10B6B00040420F001C2A00200024F40000127A00EF
:10B6C00000093D0010B5040004F0DEFE054B20002B
:10B6D000083323608023DB05A3600023236102334A
:10B6E000237310BDD4A60200002310B51A00022156
:10B6F0000148FFF7E7FF10BD48230020BFF34F8F3D
:10B70000034B044ADA60BFF34F8FC046FDE7C046E3
:10B7100000ED00E00400FA0529DF704728DF7047DC
:10B72000094B5A6E013A5A66002A04D10220074991
:10B730000A7882430A701A6E0132042A01D01A660E
:10B7400070470022FBE7C046602300205C230020F6
:10B7500070B50B4D04006A6E0020042A0FD02B6ECA
:10B76000D318032B00D9043B01326A6618225343D5
:10B77000ED18002128000BF0F2FF0120256070BDBC
:10B780006023002030B5040085B00D001022002198
:10B7900068460BF0E4FF237A012B0AD0022B0ED06F
:10B7A000636829000193236868469B68984705B041
:10B7B00030BD6A4623690293A38A9381F0E701238F
:10B7C0006A4669461370A289E3894A81D31A0B81BC
:10B7D000E6E700001B4B70B55A6E002A27D01824EC
:10B7E0001D6E6C431C19227A012A06D0022A22D02F
:10B7F00009212000FFF7C6FF19E0A28AE08A121A89
:10B80000FF2A15DC92B2182169435B18D9681B69BD
:10B81000800009181818FFF77FFF11280FD10222A6
:10B8200009490B7893431A00042313430B7070BD2E
:10B8300080225200E7E7A089FFF770FFEDE70028BC
:10B84000F5D0D5E7602300205C230020062310B547
:10B85000044A1178194204D1043B0B431370FFF7DB
:10B86000B9FF10BD5C230020F0B52B4B85B05A69A1
:10B87000531C03D180235B055A699202274B1B7826
:10B880000293012302990B400FD1254E2549891BB4
:10B89000090901918B420BD100200199814214D1F9
:10B8A0000123029A13431D4A1370002005B0F0BD16
:10B8B000180130180468002C05D04068441EA041CF
:10B8C000019C201A01900133E4E7C1B203910021E9
:10B8D0000F008B4209D103990130090189190C7BB2
:10B8E0004A60A402121B0A60D7E70C0125000C4C29
:10B8F000A446AC4464462468002C03D064466468C3
:10B90000002C07D1064C6419647BBC4202D9CFB22B
:10B91000039727000131DCE7001000105C230020B2
:10B920001823002028230020F7B51E001D4B170008
:10B930001A78012304000D001A4231D0DB180028C8
:10B940002ED0194A90422BD3184A904228D2032273
:10B950001300002F24D0002922D039002943931846
:10B9600011421DD10268013BAA4219D8B2004168B8
:10B97000AA18914214D3013B002E11D001A8FFF761
:10B98000E7FE072300280BD0019B089A1C605A6031
:10B990000122DF601A721D619E82FFF757FF0023AC
:10B9A0001800FEBD5C23002018230020282300205F
:10B9B000F7B51F001B4B16001A78012305000C0079
:10B9C0001A422CD0DB18002829D0174A904226D3DF
:10B9D000164A904223D20133002920D08A0503332E
:10B9E000002A1CD10268013B8A4218D8B2028A1888
:10B9F0004168914213D3013B002E10D001A8FFF7FC
:10BA0000A7FE072300280AD00222019BA40A5F6038
:10BA10001D601A729C811E82FFF718FF0023180018
:10BA2000FEBDC0465C2300201823002028230020F0
:10BA3000022270B5294904000B78134241D0182323
:10BA4000274A156E6B43D018022C04D0032C2CD03F
:10BA5000FFF7C0FE70BD0021224B1970037A012B45
:10BA60000CD0022BF4D18389028A01338381C389EC
:10BA700001339BB2C3819A42EAD10EE0848AC38A21
:10BA8000E11AFF290EDC89B25B18182169439BB2C9
:10BA90005218D38200219C42DAD1FFF773FEFFF7E0
:10BAA0003FFED5E780214900EEE70E4A13780133C7
:10BAB000DBB2032B01D81370CAE7002308211370EF
:10BAC000EBE704200342C3D0834305480B70406E6C
:10BAD0000028BDD013430B70BAE7C0465C2300209A
:10BAE00060230020C823002048DF704752DF7047E2
:10BAF00053DF70477047000070B50500044C0549DE
:10BB0000200005F0F1FB2900200005F0E3FB70BDEB
:10BB1000AC2700206CAE020010B50249024805F0C7
:10BB2000B3FB10BD86AC0200602A002010B50249AC
:10BB3000024805F0A9FB10BD05AD0200602A0020F7
:10BB400010B50249024805F09FFB10BDA7AC0200EA
:10BB5000602A0020F0B50B680C0085B0DB68060099
:10BB600008009847236805001B692000984702AB2E
:10BB7000DC1D0200290020000BF0D5FD97499848F4
:10BB80000CF0A8FC051E04D0300002F015FD05B035
:10BB9000F0BD2478012C00D0F6E0924F9249380095
:10BBA00005F0A2FB914B92491B68002B00D19149F3
:10BBB000380005F099FB904E904B914D326828006B
:10BBC000995C04F029FE8F4C01908F49200005F00C
:10BBD00066FB0A223168200005F0DDFB8B4920005E
:10BBE00005F05DFB854B32682000995C0A2205F068
:10BBF000D6FB8749200005F052FB0A22019920005C
:10BC000005F0CDFB8049380005F049FB0A22316878
:10BC1000380005F0C0FB7D49380005F040FB774B4C
:10BC200032683800995C0A2205F0B9FB784938007F
:10BC300005F035FB0A220199380005F0B0FBC82059
:10BC400006F0C6F8280004F096FD642006F0C0F85F
:10BC5000280004F080FC05006E49200005F01FFB61
:10BC600010222900200005F0B4FB6A49380005F0D5
:10BC70003BFB10222900380005F0ABFB10232B40C2
:10BC8000019307D06449200005F02EFB624938007B
:10BC900005F02AFB2B0608D5604F2000390005F07F
:10BCA00023FB39004F4805F01FFB6B0608D55C4F9E
:10BCB0002000390005F018FB39004A4805F014FB54
:10BCC000AB0608D5574F2000390005F00DFB3900B1
:10BCD000444805F009FB019B002B08D0524F20007F
:10BCE000390005F001FB39003E4805F0FDFA2B074D
:10BCF00008D54E4F2000390005F0F6FA39003948D2
:10BD000005F0F2FA6B0708D5494F2000390005F01D
:10BD1000EBFA3900334805F0E7FAAB0708D0454F96
:10BD20002000390005F0E0FA39002E4805F0DCFA71
:10BD3000EB0708D5404D2000290005F0D5FA290071
:10BD4000284805F0D1FA019B002B08D0324D200085
:10BD5000290005F0C9FA2900224805F0C5FA336820
:10BD60000133172B0EDC35492000336005F0A8FAAB
:10BD70000121082006F0E0F9C82006F029F800218A
:10BD8000082010E00023EEE7002C0FD12C491D48BD
:10BD900005F096FA01210E2006F0CEF9C82006F033
:10BDA00017F821000E2006F0C7F9F0E6022C00D0AB
:10BDB000EDE62449134805F083FA234B013C1C703F
:10BDC000224B29001A78224B0E201A6006F0B4F993
:10BDD0002900082006F0B0F92100D1E79C200020BE
:10BDE000FC240020AC270020D0AA0200A8290020B3
:10BDF000A9AA0200BAAA020090280020A5200020CB
:10BE000044290020602A0020D7AA0200E6AA0200E6
:10BE1000F6AA020004AB02000DAB020026AB020042
:10BE20003EAB020057AB020070AB02008AAB0200CF
:10BE3000A4AB0200BEAB0200D4AB0200EDAB02002B
:10BE4000FCAB02000CAC0200DC280020E82800203B
:10BE5000EC28002070B5074C0D002000064905F0C5
:10BE600043FA0649002D00D10549200005F03CFAAF
:10BE700070BDC046602A002075AE02007EAE020092
:10BE80008FAE020010B50400024B036002F0DCFB31
:10BE9000200010BD70B2020010B50400024B036018
:10BEA000FFF7F0FF200010BD30A8020010B504001D
:10BEB000FFF7F2FF200006F021F8200010BD00007F
:10BEC00010B50400024B0360FFF7E6FF200010BD31
:10BED00060A8020010B50400FFF7F2FF200006F092
:10BEE0000DF8200010BD000010B50400024B0360E7
:10BEF000FFF7C8FF200010BDD0A7020010B5040056
:10BF0000FFF7F2FF200005F0F9FF200010BD000050
:10BF100010B50400024B0360FFF7E6FF200010BDE0
:10BF200000A8020010B50400FFF7F2FF200005F0A2
:10BF3000E5FF200010BD000010B50400024B0360B7
:10BF4000FFF7A0FF200010BD70A7020010B504008D
:10BF5000FFF7F2FF200005F0D1FF200010BD000028
:10BF600010B50400024B0360FFF7E6FF200010BD90
:10BF7000A0A7020010B50400FFF7F2FF200005F0B3
:10BF8000BDFF200010BD000010B50400024B03608F
:10BF9000FFF778FF200010BD90A8020010B5040044
:10BFA000FFF7F2FF200005F0A9FF200010BD000000
:10BFB00010B50400024B0360FFF7E6FF200010BD40
:10BFC000C0A8020010B50400FFF7F2FF200005F042
:10BFD00095FF200010BD000010B50400024B036067
:10BFE000FFF750FF200010BD10A7020010B504009D
:10BFF000FFF7F2FF200005F081FF200010BD0000D8
:10C0000010B50400024B0360FFF7E6FF200010BDEF
:10C0100040A7020010B50400FFF7F2FF200005F072
:10C020006DFF200010BD10B50400FFF72BFF2000AE
:10C0300005F064FF200010BD07B501A8FFF758FD0B
:10C040000322019BD8171040C01880100EBD0000BD
:10C0500010B50E4B86B01B680D491C6803A805F08F
:10C0600070FD0A222100684605F0BFFD694603A85D
:10C0700005F046FE0100074805F02CF9684605F07A
:10C0800018FD03A805F015FD06B010BD182300200B
:10C09000D4AD0200602A002070B5234C8CB005009E
:10C0A0002249200005F020F98022214ED200336879
:10C0B00002959D18FFF7CCFF012302AA29000090EA
:10C0C0003000FFF731FC05001A4906A805F039FDDC
:10C0D0000A22290003A805F064FD03A906A805F0BB
:10C0E0000FFE154905F019FE06000A22029909A85B
:10C0F00005F07BFD09A9300005F002FE01002000DB
:10C1000005F0E8F809A805F0D4FC03A805F0D1FC77
:10C1100006A805F0CEFC002D03D00849200005F04C
:10C12000E3F80CB070BDC046602A0020D9AD020013
:10C1300018230020E1AD02009EC00200ECAD020019
:10C1400030B50B680C0089B00800DB68984723689D
:10C1500005001B69200098476B46DC1D0200290082
:10C1600020000BF0E0FA2478294D631E092B0CD82F
:10C17000200009F035FB274908F0BCFF264908F0EC
:10C18000E1FD002108F044FC2860244905A805F0E1
:10C19000D8FC0222296802A805F06AFD02A905A8B8
:10C1A00005F0AEFD1E4D0100280005F093F802A831
:10C1B00005F07FFC05A805F07CFC1A49280005F075
:10C1C00093F880221848D2000368991800230122AE
:10C1D000FFF7EEFB002816D0144905A805F0B1FCC6
:10C1E0000A22210002A805F0CBFC02A905A805F04F
:10C1F00087FD0100280005F06DF802A805F059FC44
:10C2000005A805F056FC2000FFF746FF09B030BD39
:10C21000D82000200000404000002041C9AC0200AE
:10C22000602A0020DEAC020018230020F3AC0200DC
:10C2300070B5234C8CB005002249200005F054F85D
:10C240008022214E1201336802959D18FFF700FFEE
:10C25000012302AA290000903000FFF765FB0500CA
:10C260001A4906A805F06DFC0A22290003A805F06A
:10C2700098FC03A906A805F043FD154905F04DFDFE
:10C2800006000A22029909A805F0AFFC09A93000AE
:10C2900005F036FD0100200005F01CF809A805F0A6
:10C2A00008FC03A805F005FC06A805F002FC002D1B
:10C2B00003D00849200005F017F80CB070BDC04647
:10C2C000602A0020FAAD02001823002002AE02000E
:10C2D0009EC00200ECAD020030B50B680C0089B0C6
:10C2E0000800DB689847236805001B692000984711
:10C2F0006B46DC1D0200290020000BF014FA2478A4
:10C30000294D631E092B0CD8200009F069FA274932
:10C3100008F0F0FE264908F015FD002108F078FB32
:10C320002860244905A805F00CFC0222296802A80F
:10C3300005F09EFC02A905A805F0E2FC1E4D0100D7
:10C34000280004F0C7FF02A805F0B3FB05A805F01C
:10C35000B0FB1A49280004F0C7FF802218481201D8
:10C360000368991800230122FFF722FB002816D04A
:10C37000144905A805F0E5FB0A22210002A805F0F2
:10C38000FFFB02A905A805F0BBFC0100280004F092
:10C39000A1FF02A805F08DFB05A805F08AFB20008F
:10C3A000FFF746FF09B030BDDC2000200000404010
:10C3B00000002041C9AC0200602A0020DEAC02006F
:10C3C00018230020F3AC020070B506000D00002415
:10C3D000B44214DA0121122005F0AEFE280005F067
:10C3E000F7FC0021122005F0A7FE280005F0F0FC64
:10C3F000034B1220197805F09FFE0134E8E770BD69
:10C40000AE290020F8B50C00134D092200210600CA
:10C4100028000BF0A4F923682000DB689847236804
:10C4200007001B69200098473900020028000BF024
:10C430007AF90A4928000CF04DF86421002803D14C
:10C440000430FFF7C1FFF8BD0120FFF7BDFF30004A
:10C4500002F0B2F8F7E7C046FC2400209C20002040
:10C4600070B50500084C0949200004F00DFF2800B4
:10C4700002F080F80100200004F036FF642104205F
:10C48000FFF7A2FF70BDC046602A00202AAD02005F
:10C4900070B505000D4C0E49200004F0F5FE280093
:10C4A00002F068F80100200004F01EFF094C200093
:10C4B00002F008FD002803D0200002F00CFD70BD42
:10C4C00064210520FFF780FFF9E7C046602A0020BD
:10C4D0002BAE020008290020F8B5194C06220021D5
:10C4E000060020000BF03BF9164D280002F0E6FC98
:10C4F0000700280002F0E4FC3900020020000BF0E5
:10C5000012F9280002F0DAFC01000F4805F0A5FB43
:10C510000E4920000BF0DEFF00280DD10C4902303F
:10C52000FFF752FF0B4D0C49280004F0ADFE280028
:10C53000210004F0D9FEF8BD300002F03DF8F1E72B
:10C540003429002008290020002A0020D0200020C3
:10C5500010270000602A002057AE020073B50600C5
:10C560000024124D1249280004F08EFE114B3000B9
:10C570001C7001F0FFFF0100280004F0B5FE6421EB
:10C580000820FFF721FF210009220B480BF0E7F8F4
:10C59000002300226946009201930848082202F015
:10C5A0006AF82100132005F0C7FD73BD602A002042
:10C5B0000DAE0200AC290020FC240020B82400208D
:10C5C000182110B5A0240020114B124AE400995004
:10C5D000114A17395060195150601960516800298B
:10C5E000FCD0A121C9005C58002151600122E1204A
:10C5F0005A60A0220001D20099506043FF3107F039
:10C60000B9FF212180B208F03FF8C0B210BDC0468A
:10C610000070004004050000FC70004007B56B4648
:10C62000D97107330122190002F025F80EBD000070
:10C6300030B504003C4D89B03C49280004F024FE8C
:10C64000200001F097FF0100280004F04DFEC821F2
:10C650000520FFF7B9FE05F0A3FB0122344B18605B
:10C66000344B1A70FFF7ACFF334B04001B68002BF0
:10C670000AD0324B0021186808F03CF9002803D199
:10C680002F4B1B78012B03D135212E48FFF7C6FF16
:10C690002D4905A805F055FA0A22210002A805F047
:10C6A0006FFA02A905A805F02BFB284905F035FB18
:10C6B0000100280004F00EFE02A805F0FAF905A812
:10C6C00005F0F7F96B460122D91C21480C7001F0E6
:10C6D000D2FFFFF7B1FC0A3844B2042201A91D4879
:10C6E000019401F0C8FF1C4905A805F02AFA0A22A6
:10C6F000210002A805F055FA02A905A805F000FBE3
:10C70000164905F00AFB0100280004F0E3FD02A829
:10C7100005F0CFF905A805F0CCF90121132005F0AB
:10C720000BFD09B030BDC046602A002049AD0200B3
:10C73000F8280020AC290020E0280020E428002070
:10C740008C280020B029002064AD020074AD0200E6
:10C7500008260020D429002076AD020088AD020012
:10C76000F0B5E44DA5B0280004F013F8002824D05B
:10C77000E14CE249200004F0B7FD322314AE28005A
:10C78000320017A9337003F0A5FEDD4D002801D15A
:10C7900000F0FDFEDB4F2800390004F080FD17A9F2
:10C7A000280004F0A1FD0D223900200004F043FD13
:10C7B000327817A9200004F03EFD17A8FFF796F97C
:10C7C000002802D11798FFF733F905F0E9FACE4AAD
:10C7D00002901168431ACD4909688B4200D9106054
:10C7E000152005F0BFFCCA4BCA4D1B782860CA4C07
:10C7F000984202D005F0D4FA206005F0D1FA2368FF
:10C80000C01AC64B1B68984225D9C54C2B682278A4
:10C810009A4220D0C34917A8237005F092F90A2242
:10C82000217814A805F0ACF914A917A805F068FA46
:10C830000100B14804F04EFD14A805F03AF917A81C
:10C8400005F037F9207808F0CBFF04220A900AA9F6
:10C85000B54801F010FF2A68AD4BB44C1A70B44AC9
:10C86000029B11685B1A21688B4200D828E1029B69
:10C8700000211020136005F05FFCAE4A1368002B06
:10C8800003D0013B13606423236005F089FA002480
:10C8900004900121102005F04FFC0394052005F0C1
:10C8A0005BFBA54B0600186008F050FF0023A34D6A
:10C8B0002F6838513F197B601F1C96235B009E42F6
:10C8C00002DD039B01330393B42040000138C046CE
:10C8D000C046C046C046C046C046C046C046C04628
:10C8E000C046C046C046F1D180230834DB009C42DC
:10C8F000D4D10021102005F01FFC05F051FA039B54
:10C9000005902D3B262B00D9D5E08D4C2D6826684F
:10C910000123290000228B4806F07AFA3100280012
:10C92000802206F003FF206807AB076006AA4021BB
:10C9300005F0E8FC049A059B981A0AF0FDFC020039
:10C940000B000020804909F0A7FA0AF079FD051CC8
:10C95000079808F045FF011C281C08F0CBFB0AF0E3
:10C960001DFD0022794B09F0A1FEFE2300229B054C
:10C9700009F09CFE0AF064FD002308AA04904021FF
:10C98000206805F039FC089D0698291C08F0E4FC95
:10C99000802322681B06061CE9181000402306F0BD
:10C9A000E9FFFE20311C800508F0CCF92568011C48
:10C9B0002A002800402306F07BFF17AA1100644BD1
:10C9C00061CB61C161CB61C161CB61C1402523688D
:10C9D00009210133FF330BA8009506F0C3FA236841
:10C9E00021685A1CFF322B000BA806F0CBFA2368F3
:10C9F00019005A1CF131FF32FF31106901C2914216
:10CA0000FBD1F82252009F5004329F5004329F50B5
:10CA1000504D04329F50504904982E7807F084FFFF
:10CA2000002801D100F0C0FE4C49049807F068FFCF
:10CA3000002801D100F0B8FE032E01D100F0B8FEAD
:10CA4000474B1B78012B36D18026022776002368BE
:10CA500098590AF0A3FC009702000B00284804F044
:10CA600079FD802304369B009E42F0D12B78002B69
:10CA700001D000F095FD802224683A495200581CEC
:10CA8000FF302058C85004339342F8D1012336496F
:10CA900019482B7004F028FC33213448FFF7BEFD01
:10CAA0000121102005F048FB0122224B1A60FA22D6
:10CAB0001E4B92001A6000232D4A13702D4A1360FA
:10CAC0002D4B029A1B68D31A2C4A1268934200D845
:10CAD000EEE02B4F3B78002B00D1E9E0294914A868
:10CAE00005F02FF80E4E0A22317811A805F048F80B
:10CAF00011A949E044290020AC270020A1AE020082
:10CB0000602A0020ADAE0200F8280020C8200020D6
:10CB1000C8280020F4280020C4280020C0200020BD
:10CB2000E8280020C7AE020020240020CC200020EE
:10CB300004290020C0280020BC280020D428002080
:10CB4000D82800205CB902000000604000408F40FF
:10CB5000E8A80200942800200000C8430000164402
:10CB60008C28002008250020D3AE0200CC23002012
:10CB7000B4280020B8280020FC28002084200020B1
:10CB8000DC28002064AF020014A805F0B9F8F24DCB
:10CB9000290005F0C2F8F14905F0BFF8F04C0A226F
:10CBA0002168039017A804F0FCFF17A9039805F06B
:10CBB000A7F80100EB4804F08DFB17A804F079FFFB
:10CBC00011A804F076FF14A804F073FFE64914A836
:10CBD00004F0B7FF0A22317811A804F0D1FF11A99F
:10CBE00014A805F08DF8290005F097F8DB4905F049
:10CBF00094F805000A22216817A804F0D2FF17A9AB
:10CC0000280005F07DF80100D84804F063FB17A860
:10CC100004F04FFF11A804F04CFF14A804F049FFE2
:10CC200023683278D24C9A420ED000250021082089
:10CC300005F082FA00210E2005F07EFA0321CD488E
:10CC40003D70FFF7EBFC2560CB4B22681B689A42D6
:10CC500012DBCA4D2E78012E0ED10021082005F0DE
:10CC60006BFA642005F0B4F831000E2005F064FA88
:10CC700002232B7000232360C14B22681B689A4259
:10CC80000EDBBE4D2B78022B0AD100210E2005F0C1
:10CC900053FA0421B748FFF7C1FC00232B7023602F
:10CCA000B84B22681B68D3182360029AB64B1A60EF
:10CCB000B54B029A1B68D31AB24A1268934200D845
:10CCC0002EE2B24B1E78002E00D129E2B04B1B6839
:10CCD000012B06D0AF4B1A68AF4B1B689A4200DAA3
:10CCE000E6E0012E00D0E3E0AC4D17A8290004F0E7
:10CCF00028FFA84C0A22216814A804F064FF14A994
:10CD000017A804F0FDFF974F0100380004F0E2FA85
:10CD100014A804F0CEFE17A804F0CBFE290017A833
:10CD200004F00FFF0A22216814A804F04CFF14A994
:10CD300017A804F0E5FF01008C4804F0CBFA14A812
:10CD400004F0B7FE17A804F0B4FE954917A804F044
:10CD5000F8FE8F4D0A22296814A804F022FF14A9B6
:10CD600017A804F0CDFF0100380004F0B3FA14A8AE
:10CD700004F09FFE17A804F09CFE894917A804F050
:10CD8000E0FE0A22296814A804F00BFF14A917A8D2
:10CD900004F0B6FF0100754804F09CFA14A804F0F2
:10CDA00088FE17A804F085FE3100122005F0C4F9B2
:10CDB0000820002105F0C0F92B687A48012B05D125
:10CDC000754B22681B6832219A4200DB3421FFF741
:10CDD00025FC754914A804F0B4FE744F0A22397872
:10CDE00011A804F0CDFE11A914A804F089FF704E1B
:10CDF000310004F092FF0500594C0A22216817A85F
:10CE000004F0CFFE17A9280004F07AFF554D010069
:10CE1000280004F05FFA17A804F04BFE11A804F0F4
:10CE200048FE14A804F045FE5F4914A804F089FEEA
:10CE30000A22397811A804F0A3FE11A914A804F05D
:10CE40005FFF310004F069FF06000A22216817A87D
:10CE500004F0A7FE17A9300004F052FF434E010072
:10CE6000300004F037FA17A804F023FE11A804F0EC
:10CE700020FE14A804F01DFE22683B78454C934226
:10CE800001D000F066FD4B4F2800390004F02CFA69
:10CE90003900300004F028FA0023474A474913704C
:10CEA0003A4A137006220A702168454A23601160CD
:10CEB000374B1B68012B06D0364B1A68414B1B6859
:10CEC0009A4200DA23E1314B1B78022B00D01EE19D
:10CED000324D17A8290004F034FE2E4C0A22216896
:10CEE00014A804F070FE14A917A804F009FF1D4F40
:10CEF0000100380004F0EEF914A804F0DAFD17A8D8
:10CF000004F0D7FD290017A804F01BFE0A222168AF
:10CF100014A804F058FE14A917A804F0F1FE0100AB
:10CF2000124804F0D7F914A804F0C3FD17A804F0C0
:10CF3000C0FD1B4E17A8310004F003FE144D0A2259
:10CF4000296814A804F02DFE14A917A804F0D8FE2F
:10CF50000100380038E0C0469EC002006CAF0200FD
:10CF6000EC280020602A002064AF0200AC270020DB
:10CF7000102A00209424002088200020DC28002093
:10CF80008C20002084200020FC280020AD290020D7
:10CF9000B02800200C2A0020942000207AAF020044
:10CFA00089AF0200B029002099AF0200E8280020D4
:10CFB000A2AF0200B3AF0200AE29002095280020E6
:10CFC000982800209020002004F084F914A804F090
:10CFD00070FD17A804F06DFD310017A804F0B1FD35
:10CFE0000A22296814A804F0DCFD14A917A804F08B
:10CFF00087FE0100EE4804F06DF914A804F059FD15
:10D0000017A804F056FD0021122005F095F80E2017
:10D01000002105F091F82B68E648012B05D1E64B7D
:10D0200022681B6833219A4200DB3421FFF7F6FAAD
:10D03000E24914A804F085FDE14F0A22397811A8CD
:10D0400004F09EFD11A914A804F05AFEDD4E310033
:10D0500004F063FE0500DC4C0A22216817A804F0E6
:10D06000A0FD17A9280004F04BFED84D01002800B0
:10D0700004F030F917A804F01CFD11A804F019FD04
:10D0800014A804F016FDCD4914A804F05AFD0A2294
:10D09000397811A804F074FD11A914A804F030FE29
:10D0A000310004F03AFE06000A22216817A804F0B5
:10D0B00078FD17A9300004F023FEBD4E01003000BA
:10D0C00004F008F917A804F0F4FC11A804F0F1FC2E
:10D0D00014A804F0EEFC23683A78BD4C9A4201D0C3
:10D0E00000F049FCBB4F2800390004F0FDF839007E
:10D0F000300004F0F9F80023B74AB8491370B84A71
:10D10000137007220A702168B64A23601160B04A82
:10D11000B54B11681B68CB181360B44B029A1A60A8
:10D12000B34B029A1B68D31AAF4A1268934200D8D5
:10D13000FBE1AA4C2378002B00D1F6E1AD4B1A6835
:10D14000002A01D000221A60AB4E17A8310004F06B
:10D15000F8FCA44D0A22296814A804F034FD14A98F
:10D1600017A804F0CDFD0100984804F0B3F814A806
:10D1700004F09FFC17A804F09CFCFA2128688900A1
:10D1800007F068FB002916D1310017A804F0D9FC7C
:10D190000A22296814A804F016FD14A917A804F09F
:10D1A000AFFD0100824804F095F814A804F081FC5A
:10D1B00017A804F07EFC2678012E08D10A2004F07E
:10D1C00007FE3100082004F0B7FF03232370237803
:10D1D000072B08D10A2004F0FBFD0121082004F0F0
:10D1E000ABFF092323702378022B08D10A2004F017
:10D1F000EFFD01210E2004F09FFF0423237023780C
:10D20000062B08D10A2004F0E3FD01210E2004F0D2
:10D2100093FF082323702378052B0AD1684B1B78D2
:10D22000012B06D10021082004F086FF0023237083
:10D230002B602378032B5CD1614F704D3A782B78AB
:10D240009A4256D06E4E14A8310004F07AFC0A229D
:10D25000297811A804F094FC11A914A804F050FD39
:10D26000684904F05AFD0A220390397817A804F09F
:10D2700087FC17A9039804F043FD0100534804F00C
:10D2800029F817A804F015FC11A804F012FC14A842
:10D2900004F00FFC310014A804F053FC0A22297892
:10D2A00011A804F06DFC11A914A804F029FD55493A
:10D2B00004F033FD05000A22397817A804F060FC59
:10D2C00017A9280004F01CFD0100394804F002F8F9
:10D2D00017A804F0EEFB11A804F0EBFB14A804F06F
:10D2E000E8FB0021082004F027FF00233D4A2370BB
:10D2F00013603A4C2378092B13D13A4D2B68002B3D
:10D300000FDC414E3148310003F0EEFF3100284878
:10D3100003F0EAFF0021082004F00EFF00232B6039
:10D3200023702378042B00D09AE0254F334D3A78B0
:10D330002B789A4200D193E0344E14A8310004F0C7
:10D3400000FC0A22297811A804F01AFC11A914A8DB
:10D3500004F0D6FC2B4904F0E0FC0A220390397853
:10D3600017A804F00DFC17A9039804F0C9FC0100EC
:10D37000164803F0AFFF17A804F09BFB11A804F0B8
:10D3800098FB14A804F095FB310014A804F0D9FB15
:10D390000A22297811A804F0F3FB11A914A804F0BB
:10D3A000AFFC184904F0B9FC05000A2230E0C04681
:10D3B000AC270020B02900209020002099AF020067
:10D3C000E8280020A2AF0200EC280020602A0020FC
:10D3D0000C2A0020B3AF0200AE29002095280020BF
:10D3E000AD2900209828002084200020FC2800205F
:10D3F00000290020B0280020DAAF0200F028002029
:10D40000E6AF02001CB0020021B0020047B00200EB
:10D41000397817A804F0B4FB17A9280004F070FCB1
:10D420000100C54803F056FF17A804F042FB11A8FD
:10D4300004F03FFB14A804F03CFB00210E2004F094
:10D440007BFE0A2004F0C4FC0121082004F074FED5
:10D45000FA21BA4AC90013685B18136005232370C8
:10D46000B74DB64C2B78082B12D12368002B0FDC5C
:10D47000B44EB548310003F037FF3100AE4803F039
:10D4800033FF00210E2004F057FE00232B70236091
:10D490002B78002B40D02368002B3DDCAB4E17A827
:10D4A000310004F04EFB0A22216814A804F08BFB23
:10D4B00014A917A804F024FC0100A34803F00AFFF4
:10D4C00014A804F0F6FA17A804F0F3FA310017A82C
:10D4D00004F037FB0A22216814A804F074FB14A995
:10D4E00017A804F00DFC0100934803F0F3FE14A804
:10D4F00004F0DFFA17A804F0DCFA0021082004F099
:10D500001BFE00210E2004F017FE34219048FFF787
:10D5100085F800232B702360884A8E4B11681B68A6
:10D52000CB1A13608C4B029A1A608C4B1B78002B21
:10D5300028D18B4B1B78002B24D1814B1C78002CDD
:10D5400020D1814D8749280003F0BAFE01210F2028
:10D5500004F0F2FD0121042004F0EEFDFEF7C4FA10
:10D560008149280003F0ACFEC02380217F4A5B0084
:10D57000C903D1500F20210004F0DEFD210004205A
:10D5800004F0DAFD7A48FDF730FF25B0F0BD794EA2
:10D590002800310003F0A8FE0B223100FFF70AF942
:10D5A000012B1ED123680024734F0393039A631C3D
:10D5B000FF33E619D058316807F02AFAFC218905B3
:10D5C00007F098FD8023043430605B009C42EDD16D
:10D5D000FE3B6A4958482B7003F086FE3421FFF762
:10D5E0005CFA022B01D0FFF75BFA27680024624E39
:10D5F000631CFF33A519F858296807F009FAFC21C4
:10D60000890507F077FD8023043428605B009C4285
:10D61000EED100240225A300F05809F0BFFE01342A
:10D6200002000B000095484803F094FF402CF2D113
:10D630000027414D5249280003F056FE332144484B
:10D64000FEF7ECFF4F4B50493F481F7003F04CFE74
:10D6500035214E48FEF7E2FF4D4B09AA1F7021000D
:10D6600030000EAB04F04EFE4A4C0E9B4A4E236037
:10D67000099B4A4914A8336004F063FA0222316816
:10D6800011A804F0F5FA11A914A804F039FB01005F
:10D690002D4803F01FFE11A804F00BFA14A804F0A3
:10D6A00008FA3F4F14A8390004F04BFA0A22216807
:10D6B00011A804F09AFA11A914A804F021FB0100A2
:10D6C000214803F007FE11A804F0F3F914A804F0B0
:10D6D000F0F9324914A804F034FA0222316811A892
:10D6E00004F0C6FA11A914A804F00AFB01002800EE
:10D6F00003F0F0FD11A804F0DCF914A804F0D9F946
:10D70000390014A804F01DFA0A22216811A804F0B7
:10D710006CFA11A914A804F0F3FA0100280003F030
:10D72000D9FD11A804F0C5F914A804F0C2F9032228
:10D730001C4B1A70FFF7B4F9AC2700209828002082
:10D74000952800207DB00200602A0020A3B00200CE
:10D75000B02900208420002000290020AC290020CE
:10D76000AD290020CAB00200D0B0020000E100E004
:10D7700034260020BBAE020008250020E1AE0200E6
:10D78000EFAE0200AE290020FBAE0200CC23002049
:10D790008C280020E0280020E428002000AF0200B0
:10D7A00010AF020094280020032E01D0FFF783F968
:10D7B000794B079A1B68991E914201D3FFF77BF9B9
:10D7C00002339A4201D3FFF776F9744974488024F2
:10D7D000802503F089FD02266400AD00714B1B68B3
:10D7E000185909F0DBFD043402000B0000966C4868
:10D7F00003F0B0FEAC42F1D1802400256400694EF4
:10D800003368185906F0FEFD674A631EFF3B071C8C
:10D81000D05806F0F7FD011C381C07F09DFD011CD7
:10D8200007F068FC3368011C1851281C07F0F0F859
:10D8300080230434051C9B009C42E0D106F0E2FDED
:10D840005A49041C14A804F07CF90222211C11A8D6
:10D8500004F00EFA11A914A804F052FA010050487D
:10D8600003F038FD11A804F024F914A804F021F9FC
:10D870004F4B211C1D68281C07F060F800285AD067
:10D880004C4B1B78002B02D001224B4B1A604B49AA
:10D8900011A804F056F9022204990EA804F0E8F940
:10D8A0000EA911A804F02CFA454904F036FA050037
:10D8B0000A22039914A804F074F914A9280004F0AA
:10D8C0001FFA404D0100280003F004FD14A804F0E5
:10D8D000F0F80EA804F0EDF811A804F0EAF8012120
:10D8E000102004F029FC324B37491E6814A804F0BC
:10D8F00028F9211C301C07F02FFD311C07F022FAFB
:10D90000324907F0F7FB0222011C11A804F0B0F91C
:10D9100011A914A804F0F4F92D4904F0FEF901004E
:10D92000280003F0D7FC11A804F0C3F814A804F0F1
:10D93000C0F8FFF7B9F8211C281C06F0E1FF002809
:10D9400001D1FFF7B1F823491E4803F0CDFCFFF7E2
:10D95000ABF80122204921480A70002215492260B3
:10D960000A70022101701E491E4A08681E49137080
:10D970000860FFF79DFA0023174918480B700D49FE
:10D9800023600B70012101701549164B0868164978
:10D990001A700860FFF7BBFBE028002020AF0200F0
:10D9A000602A0020D82800200825002031AF02007E
:10D9B000C4200020AD290020B028002041AF020083
:10D9C00048AF0200AC27002050AF02000000C84260
:10D9D00074AD02005AAF0200AE2900209528002045
:10D9E00098200020F02800209828002037B5040057
:10D9F00000F002FE0500200000F0FCFD6B46DC1D7F
:10DA000002002900200009F08EFE20783EBD0000B3
:10DA100070B5444C86B044490500200003F034FC46
:10DA2000424943480AF056FD061E00D075E0414DBC
:10DA30002800FFF7DBFF0100200003F05FFC280057
:10DA4000FFF7D4FF31282FD13B4B1A78012A04D19C
:10DA500036213A481E70FEF7E1FD3949200003F0F7
:10DA60002FFC384B384E1B7838496846336004F039
:10DA700068F80A22316803A804F093F803A96846FD
:10DA800004F03EF90100200003F024FC03A804F098
:10DA900010F8684604F00DF801212D4B082019708C
:10DAA0002C4B197004F048FB2800FFF79FFF30282B
:10DAB00031D12949200003F003FC1F4B1A78012AB9
:10DAC00005D1002236211D481A70FEF7A7FD1D4B17
:10DAD0001D4D1B781D4968462B6004F032F80A2260
:10DAE000296803A804F05DF803A9684604F008F962
:10DAF0000100200003F0EEFB03A803F0DAFF684604
:10DB000003F0D7FF01210222114B0E201970114B97
:10DB10001A7004F011FB06B070BD280000F04CFD37
:10DB2000F9E7C046602A00208BAD02009C2000204F
:10DB3000FC240020B02900208C280020CC230020C9
:10DB4000AAAD0200E8280020EC280020B8AD0200B1
:10DB50008D280020AD290020C5AD020070B5204CF5
:10DB600020490500200003F08FFB1F491F480AF0E1
:10DB7000B1FC061E30D11E4D2800FFF737FF010013
:10DB8000200003F0BBFB2800FFF730FF31280DD148
:10DB90001849200003F094FB0122174B32211A7020
:10DBA000164B28001E70FEF739FD70BD2800FFF7E8
:10DBB0001DFF352809D1104B1A78002A00D01E709D
:10DBC0000F49200003F07CFBEFE72800FFF70EFF72
:10DBD0003628EAD10B49F4E7280000F0EDFCE4E731
:10DBE000602A00201DAC02009C200020FC240020A4
:10DBF000CC23002046AC02008C2800209428002072
:10DC00005EAC020073AC020010B5040004F076F9BB
:10DC1000200010BDF8B50023644C1A00022120003A
:10DC2000FDF750FD624D23001C220221280002F066
:10DC300073FC604C60492200280006F091FB5F4DA8
:10DC4000092302220A212800FDF72CFB22005C494F
:10DC5000280006F085FB5B4D5B49280003F071FF4F
:10DC600022005A49280006F07BFB5949594801F027
:10DC70005EF95949594801F05AF9594E1A22594941
:10DC8000300001F05DF9584D22002900300006F007
:10DC900067FB564E08225649300001F0ADF92200CC
:10DCA0005449300006F05CFB534F544A3900544845
:10DCB00000F04AFD534E22003100514806F050FB5F
:10DCC0005149524801F02BF902224949504801F0CC
:10DCD000D9F822004F494E4806F042FB4E494F48C2
:10DCE00001F025F902224E494E4801F041F9220087
:10DCF0004D494C4806F034FB4C494D4801F017F9AA
:10DD000002224C494C4801F04BF922004B494A4849
:10DD100006F026FB4A494B4801F009F912224A490C
:10DD20004A4801F053F922004949484806F018FBD7
:10DD30003900484A484800F007FD220031004648B3
:10DD400006F00EFB1A224549454801F0F9F8290072
:10DD50002200434806F004FB1A224249424801F0DF
:10DD6000EFF829002200404806F0FAFA1A223F494B
:10DD70003F4801F0E5F8290022003D4806F0F0FA9E
:10DD800039003C4A3C4800F0DFFC220031003A48B0
:10DD900006F0E6FA394E1A223000394901F0D0F87F
:10DDA00029003000220006F0DBFAF8BD9C28002094
:10DDB0004429002080200020F5BA010034260020EC
:10DDC000B9B40100002A00201CB90200B31A0200F5
:10DDD0000CA90200CC28002031A90200DC2400207C
:10DDE000B029002056A9020001C00100B82400207B
:10DDF0005BA90200B1BF01006EA5020060A902008C
:10DE0000E42400202DE701006BA902003C2900203A
:10DE10000829002075EE010070A902002C260020C0
:10DE200075A902000826002061BF01009AA902001E
:10DE3000F82900209FA90200D429002011BF010069
:10DE4000A4A902008C240020C9A9020020240020DB
:10DE5000C1BE0100EEA902000824002000AA0200B1
:10DE60004424002025AA0200682400204AAA0200B7
:10DE7000942400206FAA0200F0230020CC2300206D
:10DE800084AA0200E121F0B5F84F87B049023800BA
:10DE900003F0A0FB0121122004F030F90121102031
:10DEA00004F02CF90021062004F028F901210820B3
:10DEB00004F024F90021082004F03EF901210E208D
:10DEC00004F01CF900210E2004F036F90121132082
:10DED00004F014F90021132004F02EF9022115207A
:10DEE00004F00CF90021052004F008F900211C20A1
:10DEF00004F004F90121042004F000F901210F20AD
:10DF000004F0FCF800210F2004F016F90021042091
:10DF100004F012F90021162004F0F0F800210800A6
:10DF200004F0ECF8C021D24C4900200000F00BFFB7
:10DF3000D049200000F049FDCF4D280000F0FBFA49
:10DF40000100200000F03EFDCC49200000F0B7FEAB
:10DF5000CB492000043100F0B2FECA49200000F095
:10DF6000AEFEC9492000043100F0A9FE29002000BE
:10DF700000F0A5FEC54E2000311D00F0A0FEC449F2
:10DF80002000043100F09BFEC24D2000291D00F04E
:10DF900096FEC1492000043100F091FEBF492000E7
:10DFA00000F08DFEBE4B2000191D00F088FEBD491B
:10DFB0002000043100F083FEBB4B2000191D00F04F
:10DFC0007EFEBA4B2000191D00F079FEB84B2000F0
:10DFD000191D00F074FEB749200000F070FEB64B2A
:10DFE0002000191D00F06BFEB449200000F0F0FC89
:10DFF000B34B2000191D00F0EBFCB24A00212000B9
:10E0000000F01AFDB04A0121200000F015FDAF4AD2
:10E010000221200000F010FDAD4A0321200000F095
:10E020000BFDAC4A0021A64800F05EFFAA4A002181
:10E03000300000F073FBA94A00219F4800F06EFBFE
:10E04000A74A0121964800F069FBA64A002196489C
:10E0500000F064FBA44A0021944800F05FFBA34A4F
:10E060000021934800F05AFBA14A0121904800F09A
:10E0700055FBA04A0021280000F050FB01219E4AD8
:10E08000280000F04BFB2000FDF7A6F9002300203C
:10E090009A499A0001338850402BFAD18020C00061
:10E0A00009F00CFB964B18608020C00009F006FBBD
:10E0B000944B95491860380003F002F9FA210120C9
:10E0C0008900FEF781F90022904B352130001A704B
:10E0D000FEF7A4FA37212800FEF7A0FAFDF7C4FBEB
:10E0E0008B49002800D18B49380003F0FDF88022CD
:10E0F000894DD2002B6803A89E58802212019C589B
:10E1000031000A2203F071FD03A9380003F0E2F8A0
:10E1100003A803F0CEFC0A22210003A803F065FD4A
:10E1200003A9380003F0D6F803A803F0C2FC731C5F
:10E1300000D016E17949380003F0D6F880222B6828
:10E14000D2009918280000230122FDF731FC002895
:10E1500003D07349380003F0C7F805215248FEF791
:10E160005DFA524E631C00D001E16C49380003F0A7
:10E17000BBF880222B681201991828000023012285
:10E18000FDF716FC002803D06549380003F0ACF811
:10E1900005213000FEF742FA624C6349200002F08C
:10E1A000F1FD624B0500186001000A22380003F0FF
:10E1B000F6F8002D00D1E0E05D4E3800310003F0AC
:10E1C00093F85C4D3100280003F08EF80022200007
:10E1D000110002F0E5F907F003FB5749061C03A8FC
:10E1E00003F0AFFC0222311C684603F041FD694692
:10E1F00003A803F085FD0100380003F06BF86846C2
:10E2000003F057FC03A803F054FC4B4903A803F0A8
:10E2100098FC0222311C684603F02AFD694603A8D7
:10E2200003F06EFD0100280003F054F8684603F087
:10E2300040FC03A803F03DFC404A4149200002F0A5
:10E24000C5F90B21200002F0E7FA05003D4903A8BB
:10E2500003F077FC0A222900684603F0A2FC694615
:10E2600003A803F04DFD010038006DE0602A002096
:10E2700034260020D7B00200CC2800202C26002015
:10E2800008260020F8290020D4290020B0290020E9
:10E29000E4240020CC230020F02300208C24002044
:10E2A000202400200824002044240020682400208A
:10E2B00094240020DC240020B82400203C290020E5
:10E2C0000829002031C601005DC5010061C40100BC
:10E2D00091C40100D9C4010011DA010005C4010094
:10E2E00019BB010041C10100D9C2010055BB0100A9
:10E2F00041BB01005DDB01002DBB010008250020B2
:10E30000D4280020D8280020DCB00200AE2900204C
:10E31000EFB00200F8B0020018230020DEAC0200CB
:10E3200007B1020044290020F9BA0100A829002001
:10E330003BB10200AC27002048B10200CDCC4C3DDF
:10E340000080D8435BB1020002F0C4FF684603F0CE
:10E35000B0FB03A803F0ADFB200002F00CFA07B0FD
:10E36000F0BD0B49380002F0BFFFF1B2F6E60849F4
:10E37000380002F0B9FFE1B20BE7064C380021008B
:10E3800002F0B2FF2100044802F0AEFFE7E7C0460A
:10E3900025B102006CB10200AC27002052DF7047AB
:10E3A0000C4B37B51B78002B13D00B4C2568002D78
:10E3B0000FD001A8FFF7F2FF05280AD0002804D0EB
:10E3C00000221100FDF79AF9F1E7019823689847B8
:10E3D000EDE737BD142A0020182A002010B5FFF7FA
:10E3E000DFFF10BD70B5002504AC24780573A94289
:10E3F00005D10A4B0A4A25210A4809F0C3F80160F1
:10E400000949920052589B0002715B58A400837125
:10E410006358856043710223C37170BD7DB10200F2
:10E42000DFB102008BB102008CB80200037B002B2D
:10E4300004D1437383730361013303737047000096
:10E440001FB50191A02100240068C900D2B2445038
:10E45000012A10D0A24209D0032A0AD0074A8350C9
:10E46000074B019AC250012343501FBD02221343A0
:10E47000F4E70422FBE70622F9E7C0465405000052
:10E480002405000010B50400FFF7D0FFA122236887
:10E49000A179D20099506179064A200099502179DA
:10E4A00004329950044B19685A689B68FFF7C8FFFB
:10E4B00010BDC0460C050000302A0020A022002319
:10E4C0000168D2008B500373704770471FB5FFF788
:10E4D000B7FF05B000BD70470368074A99501A009E
:10E4E000FC32D1680029FCD0A321C9005858002370
:10E4F000C0B2D3607047C0461C050000704770472B
:10E5000007B58022074BD2051A6000229A600232BA
:10E510001A71182315320093034901330348FFF79A
:10E5200061FF07BD302A0020003000401C2A002077
:10E53000016082807047006870478088704737B5F7
:10E54000062504002A000021684609F008F92A007F
:10E55000201D694609F0D8F8431E9841C0B23EBD5F
:10E5600010B504310430062209F0CEF84342584178
:10E57000C0B210BD10B5034C0430210000F054FDB2
:10E58000200010BD3C2A002010B5006800F00EFAF3
:10E5900010BD1FB50400FFF7F7FF2000FFF7CFFF06
:10E5A000002807D0216801A800F02FFA01A9200057
:10E5B000FFF7D6FF04B010BD10B50400FFF7E9FF68
:10E5C000002802D0206800F01AFA10BD10B50430FF
:10E5D000062209F0A8F810BD10B50430062200216B
:10E5E00009F0BDF810BD10B504000160FFF7F4FF9D
:10E5F000200010BD807A7047C0687047007C70476B
:10E6000000207047C368585C704770B50D0011005A
:10E6100002680400D6691A00B0470123A374A369F5
:10E62000002B02D021002800984770BD70B504006F
:10E6300008000D0009F060FF2368C2B22900DB6901
:10E640002000984770BD0000054B10B5083304004A
:10E650000360C068002801D009F03AF8200010BD1E
:10E660001CB2020010B50400FFF7EEFF200003F01B
:10E6700045FC200010BD10B50400807A031C9042B8
:10E6800000D9131CDAB22374E06809F04CF863690E
:10E690000120002B04D01A6821001268180090474E
:10E6A00010BD0000F8B51D00040017000430104A2A
:10E6B00000F06EF80F4B083323602B1C142D00D98B
:10E6C000142300212000A372E16021746774A174F7
:10E6D000E17461610C221830DEB209F040F8002DBF
:10E6E00003D0300008F0EAFFE0602000F8BDC0462B
:10E6F000032800001CB20200407C7047C07C7047B9
:10E7000003000800DA7451424A4107329200D2589D
:10E7100010B5002A01D01900904710BD0B2902D86E
:10E72000063189000A50704741617047704700699F
:10E730007047007D70470369585C704710B504004E
:10E7400003F0DCFB200010BD70B51500A42204000E
:10E750009201043000F01CF8044B256108332800B6
:10E76000236009F0C9FE2075200070BD4CB2020084
:10E770000120704770B504001D00FFF793FF034BA5
:10E78000257408332000236070BDC04668B20200C3
:10E7900010B50400FFF7CCFE024A200013780133C5
:10E7A000137010BD4E2A0020014B18787047C046E8
:10E7B0004E2A002010B5C06803681B6A984710BD38
:10E7C00008B4024B9C46043808BC6047B5E701001A
:10E7D00010B5C06803685B6A984710BD08B4024B67
:10E7E0009C46043808BC6047D1E7010010B5C068FA
:10E7F00003689B6A984710BD08B4024B9C460438D6
:10E8000008BC6047EDE7010010B5C0680368DB6A2B
:10E81000984710BD08B4024B9C46043808BC6047BA
:10E8200009E8010010B5C06803681B6B984710BD6C
:10E8300008B4024B9C46083808BC604725E8010034
:10E8400010B5C06803685B6B984710BD08B4024BF5
:10E850009C46083808BC604741E8010010B5C06814
:10E8600003689B6B984710BD08B4024B9C46083860
:10E8700008BC60475DE8010010B5C0680468E46B3F
:10E88000A04710BD08B4024B9C46083808BC60473E
:10E8900079E8010010B5C06803681B6C984710BD8B
:10E8A00008B4024B9C46083808BC604795E8010054
:10E8B00010B5C06803685B6C984710BD08B4024B84
:10E8C0009C46083808BC6047B1E8010010B5C06834
:10E8D00003689B6C984710BD08B4024B9C460838EF
:10E8E00008BC6047CDE8010010B5C0680368DB6C68
:10E8F000984710BD08B4024B9C46083808BC6047D6
:10E90000E9E80100030010B5FC335B6F002B02D077
:10E910005D30FF30984710BD030010B5FC339B6F8E
:10E92000002B02D05D30FF30984710BD0100100071
:10E9300010B504681A005D3102AB1B78FF31646AC0
:10E94000A04710BD7047704770B5050004005D35E5
:10E95000FF3511002800FC34FFF738FEE36E002B72
:10E9600001D02800984770BD030010B5FC335D301E
:10E970001B6FFF300400002B00D098472000FFF7EA
:10E980002BFE10BD010010B55D311000FF311A00E3
:10E99000FFF7B6FE10BD010010B510005D311A0082
:10E9A00002AB1B78FF3100F0A5FA10BD10B5C068AE
:10E9B0000368DB68984710BD10B5C06803681B6921
:10E9C000984710BD883001607047983001607047EB
:10E9D00070B50600A436336804000D00002B05D185
:10E9E00000F042FA800008F069FE3060A834237815
:10E9F00032689B009D5023780133237070BD10B5A1
:10EA0000C0680368DB69984710BD70B505000C004D
:10EA10000800FFF7CBFF2B005D34FF3407CC07C3A2
:10EA2000280070BD10B50400FFF7C0FF20005D3066
:10EA3000FF30FFF784FD10BD0F2902D85A3189003D
:10EA40000A50704710B50400FFF7AEFE800008F0D2
:10EA500035FE23009C331860103303600C33436091
:10EA6000243383602033C3600C3303610523A03457
:10EA7000237010BD30210023F0B5AFB002AA5218A8
:10EA8000137003008C3319680400002900D1AAE038
:10EA900008A800F00DFB08A800F036FB0223834213
:10EAA0009B415B4216AA143305001070537008A8EE
:10EAB00000F028FB010052201A2602AB2A00C018E1
:10EAC000761B08F030FE0125F6B223008833196862
:10EAD000002929D008A800F0EBFA08A800F014FBE0
:10EAE000431C0700B3421FDA1F20030050216B4371
:10EAF00002AA5218D7540623022F00D8043B6843B9
:10EB000016AA12185370079008A800F0FBFA079B8A
:10EB10000100981C16AB18183A0008F004FE023EDB
:10EB20000135F61BEDB2F6B22300903319680029C7
:10EB300016D01A79002A13D0022E11D9531CB342D1
:10EB400001DB023EF2B21F23FF276B4316A81A54C3
:10EB5000C61802337770C01808F0E5FD0135EDB234
:10EB6000230098331E68002E1BD0300009F0C4FC2F
:10EB7000C0B21D283AD8302202AB9B181870302240
:10EB800002AB9B181A78002382425B41312002A914
:10EB9000091808330B70013002AB3100C01808F0BF
:10EBA000C2FD27009C373B68002B02D12000FFF7F5
:10EBB00049FF002307932300A0331B78079A934251
:10EBC0001ADD93003A689E583000FFF7B6FC314BCF
:10EBD000984205D1301E00D0301F211DFFF7A4FD43
:10EBE000079B0133E6E71C260D006EE730211D234D
:10EBF00002AA52181370C2E700272300A8331B781B
:10EC0000BB4213DD2300A4331B68BA00D658300082
:10EC1000FFF793FC1F4B984206D1301E00D0301FE7
:10EC20002100083100F079F90137E6E7002B0BD01D
:10EC300021002931FF312000FFF7CAFE21003531C4
:10EC4000FF312000FFF7C4FE3022210002AB9B18E9
:10EC5000A8311B780978E0685A1E93410268049134
:10EC60002100A4310968DBB203912100A0310978A9
:10EC7000029121009C31096801910EA900919668CA
:10EC8000290016AAB047E06803681B6D98472FB0AB
:10EC9000F0BDC0460328000070B506009C363368FE
:10ECA00004000D00002B01D1FFF7CCFEA034237827
:10ECB00032689B009D5023780133237070BD10B5DE
:10ECC000FFF7EAFF10BD000010B50400164B03600B
:10ECD000164B4360164B8360FFF76EFE2300A43390
:10ECE0001868002801D008F0F3FC23009C33186852
:10ECF000002801D008F0ECFC20003130FF3000F09B
:10ED0000B9F8601DFF30FFF79FFC2000D830FFF7F7
:10ED10009BFC2000B430FFF797FC2000103000F07F
:10ED2000EFFE200010BDC046C4B202002CB30200AA
:10ED300044B3020010B50400FFF7C6FF200003F043
:10ED4000DDF8200010BD07B56B46D9800633D830FA
:10ED500002221900FFF78FFC07BD0000334BF7B507
:10ED60000360334B04004360324B00258360030093
:10ED700010331800009301F0EDFA230020008833CF
:10ED80005D609D601D731D615D611D76DD611D60AF
:10ED900004331D772849AC3000F0C9F82300B433A0
:10EDA00001930222132325490198FFF77BFC0223DC
:10EDB00020001A002249D830FFF774FC2000214FB0
:10EDC000FC30390000F0B3F81F4E601D0423310001
:10EDD0002022FF30FFF766FC200029303900FF3089
:10EDE00000F09DF82000313031002022FF3000F08B
:10EDF00049F820005D302100FF30FFF7F4FB2000D0
:10EE0000009B6930E36010222900FF3008F0A7FC66
:10EE10000E490198FFF70AFC29002000FFF793FF35
:10EE2000E068210001F022FB2000FEBDC4B2020018
:10EE30002CB3020044B3020098B202009DB202005B
:10EE4000A2B20200A7B20200ACB20200B1B202004C
:10EE500010B50400FFF76CFB024A20001378013361
:10EE6000137010BD4F2A0020014B18787047C04620
:10EE70004F2A0020704710B5040003F03FF820002F
:10EE800010BD000070B5040015000430094AFFF7FA
:10EE9000DFFF00212000084BA57208332360E31C2C
:10EEA000E1720422D9772830616208F058FC200012
:10EEB00070BDC0460328000064B302000C307047E8
:10EEC000C07A704710B5436A0100181E02D01A6854
:10EED0001268904710BD10B5436A0100181E02D099
:10EEE0001A685268904710BD032902D80A31890078
:10EEF0000A50704770B50400C3720D000C30110049
:10EF00001A0008F010FC0122E31CDA77A36A002B38
:10EF100002D021002800984770BD41627047A022AE
:10EF200010B504009201FFF793FF200010BDA0224E
:10EF300010B504009201FFF72BFC200010BD00006B
:10EF400013B504000123FFF715FC074B01222360D2
:10EF50006B46D91D002320000B70FFF78CFB034B81
:10EF60002000236016BDC04610A7020040A7020083
:10EF700013B504000123FFF7FDFB074B01222360BB
:10EF80006B46D91D002320000B70FFF774FB034B69
:10EF90002000236016BDC04670A70200A0A7020093
:10EFA00013B504000423FFF7E5FB064B042223609E
:10EFB000002301A920000193FFF75DFB024B200015
:10EFC000236016BDD0A7020000A8020013B50400FC
:10EFD0000423FFF7CFFB064B04222360002301A983
:10EFE00020000193FFF747FB024B2000236016BD72
:10EFF00030A8020060A8020013B504000823FFF740
:10F00000B9FB074B0022236000236946009201935D
:10F0100020000822FFF72FFB024B2000236016BDC3
:10F0200090A80200C0A80200F0B51E4C8BB00500ED
:10F030000E0001A8210002F084FD210004A802F0C6
:10F0400080FD05242B5D0F2B03D8174901A802F082
:10F0500048FE1022295D07A802F092FD07A904A826
:10F0600002F0F3FD07A802F024FD04A901A802F0B4
:10F0700032FE671E002C06D00C4901A802F031FEBA
:10F080003C007B1CDED100231222310001A802F0DB
:10F0900058FE04A802F00DFD01A802F00AFD0BB015
:10F0A000F0BDC0461CB902009BB2020086AD020052
:10F0B000F7B50023050001AE2960037508000F00B5
:10F0C0003380B37009F018FA441E002C18DB2B7D36
:10F0D0000F2B15D83A5D2D2A02D10134023CF4E7FA
:10F0E0003B19013B1B7872700021102230003370F5
:10F0F00009F0A0FA2B7DEA18013310712B75EDE7AA
:10F100002800FEBD04307047007D704771DF7047F6
:10F1100072DF704773DF704775DF704776DF7047C7
:10F1200077DF704778DF70477ADF70477CDF7047A2
:10F130007EDF70477FDF704786DF704790DF704764
:10F1400092DF704796DF704798DF704799DF70470E
:10F15000A0DF7047A2DF7047A3DF7047A4DF7047CE
:10F16000A6DF7047A9DF704760DF704761DF704737
:10F1700062DF704763DF704753DF704710DF70470F
:10F1800011DF70475C300078431E9841C0B2704771
:10F1900002000300002030B56D321478844213DD84
:10F1A0001D6F0201AA1815688D420BD10020D1896C
:10F1B000814206D0127B920703D574331B7801304D
:10F1C000584030BD0130E9E70020FAE70300002293
:10F1D00070B56D331C7894421BDD056F1301EB187D
:10F1E0001D688D4213D10022D98991420DD0197B1F
:10F1F00089070AD50100012474310C70D989008F68
:10F20000FFF7A0FF42424241D2B2100070BD01326E
:10F21000E1E70022F9E702000300002030B56D327B
:10F22000147884421BDD1D6F0201AA1815688D42F7
:10F2300013D10020D189814206D0127B110704D559
:10F2400074331B780130584030BD5207FCD55C3315
:10F250001878431E9841C0B2F6E70130E1E700207C
:10F26000F2E7F0B587B0040001936D300678002016
:10F27000864230DD276F05017D192F688F4228D126
:10F280000020EF89874222D0297B0C2529421ED0FD
:10F2900026005C363578854219D0082319404B4248
:10F2A0004B4103A901330B706B469B888A60CB806E
:10F2B000230001227433013D1A7048704F8088800A
:10F2C0003570208FFFF740FF43425841C0B207B06E
:10F2D000F0BD0130CCE70020F9E70300002230B593
:10F2E0006D331C78944212DD056F1301EB181D6815
:10F2F0008D420AD10020DA89824205D0187B302362
:10F300001840431E9841C0B230BD0132EAE70020E8
:10F31000FAE70300002230B56D330400187885B099
:10F3200090422BDD256F1301EB181D688D4223D110
:10F330000020DA8982421DD030211B7B0B4219D07C
:10F3400020390B4059424B41694601334B80012320
:10F35000881CD21801A94A808022920202922200BF
:10F3600074320B8013708860208FFFF7EDFE4342EC
:10F370005841C0B205B030BD0132D1E70020F9E7F5
:10F3800010B503681B6C984710BD0300002230B510
:10F390006D330400187885B0904226DD256F130187
:10F3A000EB181D688D421ED10020DA89824218D0E8
:10F3B000197B3023194214D06B4658809D1C0123C1
:10F3C00001A9D2184A80802292020292220074324D
:10F3D0000B8013708D60208FFFF7B6FE43425841BB
:10F3E000C0B205B030BD0132D6E70020F9E70B000E
:10F3F00010B527331ADB0B001D331ADB0B00133358
:10F4000019DB0B000F3318DB0B000B3317DBCB1DA5
:10F4100017DBCB1C17DBC817401AC00F800040B2A7
:10F42000FFF77EFE43425841C0B210BD2820404243
:10F43000F5E71E20FBE71420F9E71020F7E70C2082
:10F44000F5E70820F3E70420F1E710B51321008F5A
:10F45000FFF764FE10BD13B504006846FFF756FEC3
:10F460002069002805D06A4603680132DB69210063
:10F47000984713BD37B50023050001A80193FFF796
:10F480007BFE2C69002C0ED0019807F01BFF002298
:10F49000054B07F00BF907F0D3FF2368021C1B6A2A
:10F4A00029002000984737BD0000D03F704710B5B5
:10F4B000040086B018220021684608F050F90023A5
:10F4C000A27A9A4200D103336A461370A0880A21B7
:10F4D000000105F0D9F86B4618826846FFF71AFE5E
:10F4E00006B010BD0300F0B55D330C001A780600BD
:10F4F0000023142193B09A4267DD0F005F43306E02
:10F50000C7193868A0425ED12000FFF7F5F8012343
:10F5100018425AD07B68002B57D033003100333368
:10F5200002931D7814312A000AA808F0FCF8236819
:10F5300020001B69984704352818C3B203930023A1
:10F540000193039B1F2B3BD87868FEF7F4FF010063
:10F5500004A8FFF7ADFD236820001B699847182217
:10F56000029B03301D7804AB9B1858550AAB5B19FE
:10F57000023A04A85A70FFF7C5FD02350AAB010034
:10F580000222581908F0CFF8029B20001D780AAB20
:10F5900004355D192368DB689847236807001B69F9
:10F5A0002000984739000200280008F0BCF800232A
:10F5B00003991A000AA8FFF7ABFD012374630193B6
:10F5C000019813B0F0BD013395E70023F7E70A2156
:10F5D000F0B5D9B004ABC9188E2311AE5B0004009E
:10F5E00030000B80FFF7C2FD011E0ED13388302B97
:10F5F00000D190E139D8112B00D1BDE007D8012B03
:10F6000000D182E0102B00D185E059B0F0BD142B61
:10F6100000D10DE1192B00D119E1132BF5D1E068D0
:10F62000002800D1FFE000F0BBFE002800D0FAE087
:10F6300007AD05220021280008F091F801223023AF
:10F6400013432B7007230021EA702A006B700933E3
:10F65000AB70A36D0D9109930E910F910A910B91CF
:10F66000208F09ABFFF766FDCFE7382B00D11DE2F5
:10F670002AD8322B00D19BE1362BC6D1230074331C
:10F6800018700623F288FF339A4200D0F1E1E36854
:10F69000002B00D1EDE109AD0522280008F05FF84C
:10F6A0000123EA7829001A43EA702A78134370226A
:10F6B0009343403A13432B7007236B700933AB70AD
:10F6C000208FFFF735FDA0E7502B00D1D4E0522B5F
:10F6D00000D11AE1392B00D097E7B37BB589022B13
:10F6E00003D1208F2900FFF731FD23006D331978F6
:10F6F0000023994200DC88E7206F1A018218D08924
:10F70000A84200D1C3E10133F3E75C342378327AB5
:10F710009B18237079E7B08809AD20872900FFF78F
:10F7200027FD23002A785C331A702069002806D050
:10F730003D22036804A952181B6821009847E288FB
:10F74000052A0DD9C821238909018B4208D86B806D
:10F75000C8235B042A800A93208F2900FFF7DCFC72
:10F76000230064331B78002B00D14EE700220121D7
:10F77000208FFFF7E3FC48E701235B422387230048
:10F7800005005C33187023005D331B78AB4218DD35
:10F79000142600276E43236E9E19377477743068E1
:10F7A000FEF7ACFFB8420AD02069B84207D0036820
:10F7B00032685B6921009C463B006646B0470135D4
:10F7C000E1E72069002803D0036821005B689847BF
:10F7D00000250C26230064331B78AB420ADD300081
:10F7E0006843A36E042218180830002107F0B7FF01
:10F7F0000135EFE70023250018006D352A789A427D
:10F8000008DD216F1A0189180873216F01338A18E6
:10F81000D081F3E72300002274331A70236820009C
:10F820009B699847F1E60023208F1A00852119E78C
:10F83000A56D338A6A8A208F9A4205D10B000A008F
:10F840002900FFF779FCE0E60B000A00F9E7327ABD
:10F85000002A00D0D9E6E068002804D021001C234B
:10F860003C3100F0B2FD2069002800D1CDE60368EC
:10F870009B6821009847C8E60500F388049323009D
:10F880005D331B78AB4200DCBFE614276F43236E69
:10F89000049ADF193B8993420ED12069002800D1D8
:10F8A000B3E6327C036800921D69462304AA9B18C4
:10F8B0003A682100A847A8E6BB89049A934222D15E
:10F8C0000121F27CB37C120213431BB29AB20B40AB
:10F8D0003B7453080B407B7403231A40531E9A4118
:10F8E0003868D3B20393FEF709FF039B98420AD00E
:10F8F0002069002800D188E603683A685D69210024
:10F90000039BA84781E60135B9E7208F0B000A0069
:10F91000FFF728FC79E6F588002D18D023000500B4
:10F920000C2164331A78AA4200DC6EE60B006B43AC
:10F93000A06EC3181889002838D05889002835D0FF
:10F940002200083319006C321570208F72E04227B4
:10F95000B389039304ABFF18039BAB421DDD230067
:10F9600064331A7800239A4212DD0C205843A16EAA
:10F970000818B9788C4681798C450CD139888C4629
:10F9800081888C4507D10830391D042207F0CBFE51
:10F9900001350837E0E70133E5E7039B208FDB0003
:10F9A000F618B1890022013189B2E2E60135BAE7E1
:10F9B0002000F1886C3002780C2300293DD15A4395
:10F9C000A16E8A18926804A90992422252180A214B
:10F9D000B58904906943891803910593039991426D
:10F9E00026D0260000206D36317881421BDD049F31
:10F9F000059B3F78216F5F430501A36E4919FF58AE
:10FA00004B689F420DD193788F7ABB4209D11388FE
:10FA10000F89BB4205D117790F73236F11895D19C7
:10FA2000E9810130E0E7108909A908800A32D5E7A9
:10FA3000208F09A9FFF784FBE7E52100013253433A
:10FA400064310D7895420DDDA16EC9180E89002E26
:10FA500005D04E89002E02D00270083175E70132C0
:10FA60000C33EFE72069002800D1CEE50368DB689E
:10FA7000FFE623006D3319780023B089994200DC3A
:10FA8000C3E5256F1A01AA18D58985420CD12069D2
:10FA9000002800D1B9E5317C036800919D694623B7
:10FAA00004A95B18126804E70133E7E72300743305
:10FAB00018700623F288FF339A4200D0A5E5E36868
:10FAC000002B00D0E7E5A0E510B50400FFF758FBD8
:10FAD000206F002801D007F0FBFDA06E002801D0A8
:10FAE00007F0F6FD206E002801D007F0F1FD22009E
:10FAF00000235D326D341370D371237010BD00008C
:10FB000010B50400044B08330360FFF7DDFF20004D
:10FB100000F096FC200010BD88B3020010B5040070
:10FB2000FFF7EEFF200002F0E9F9200010BD000011
:10FB300013B56C4612886180228001006A46024833
:10FB40000193FFF70BFB16BDFFFF0000F0B5F3B00C
:10FB50001C007AAB1B78060007937CAB1B780191E5
:10FB600015009B4904220EA8099307F0DCFD002133
:10FB70000EA8FFF703FB2620964B12220F930AAB29
:10FB80000021C01807F0EBFD0A2313AF0FA93B803B
:10FB90003800093B3B733B72FFF7E6FA8E4B11A826
:10FBA0001193C8235B041293FFF7BEFA0020FFF7FE
:10FBB000B7FA81235B00B382FC3BB37533000322A9
:10FBC00033331A70019B002B21D0002D1FD01F232F
:10FBD000019A5343EB1801933700019B3337387870
:10FBE000AB4214D02B783218013313756B78023086
:10FBF000C0B25375387014302A78A91C301807F039
:10FC000092FD2A783B781F359B183B70E4E7002C67
:10FC10001ED0789B002B1AD01F277C431D001B1978
:10FC200000240193019BAB4212D02F782AA87B1CA1
:10FC300003556A7803190234E4B25A700019A91CFA
:10FC40003A003C1907F06FFDE4B21F35EAE7789CF3
:10FC500033003000333319782AAA23001430FFF719
:10FC600057FA0020FFF75EFA0024079BA3420EDD3F
:10FC7000799AA300D058FEF760FC584B984204D103
:10FC800032005D321378013313700134EDE7330035
:10FC90005D3318780338C0B218701423584307F046
:10FCA0000DFD00230BAA1380799A3066039202930C
:10FCB00008930593079B029A934200DC11E2039B91
:10FCC0001D682800FEF737FC01001DA8FFF7F0F9BA
:10FCD0001DA8FFF717FA04001DA8FFF715FA022860
:10FCE0002BD162782378120210A913430B800123D1
:10FCF0008B702800FEF721FCA0239B01984231D194
:10FD00002800FEF718FC364908F0E4FB00280DD067
:10FD10002800FEF710FC334908F0DCFB002805D072
:10FD20000BAA10A90120FFF713FA0895029B0133D3
:10FD30000293039B04330393BCE732AF21001022EC
:10FD4000380007F0F0FC627B237B1202134310AAF9
:10FD5000138000231A21BB810AABC9183800FFF7B2
:10FD600009FAC6E72800FEF7E8FB1C4B984200D0D2
:10FD700032E12F1E00D02F1F3C1D2000FEF7DBFBC1
:10FD8000194908F0A7FB002811D1112332AC2370C8
:10FD90003B683800DB6898473B6805001B69380002
:10FDA0009847290082B22000FFF7C0F9BEE7200083
:10FDB000FEF7C1FB0D4908F08DFB002818D13B6808
:10FDC0003800DB6898470088FFF7ACF9AEE7C0461B
:10FDD00074B3020080200020280050000328000097
:10FDE00098B20200A7B202009DB20200A2B20200C5
:10FDF0002000FEF7A0FBCD4908F06CFB002895D051
:10FE00003800FEF779FC3B6804901B69380098477E
:10FE10000AABD88014230025059A29005A43336E73
:10FE200001929F50336E23A89B181D74336E9B184C
:10FE30005D74336E9B18089A5A601C2207F08FFC81
:10FE400001226421049B93430AAA521813703023A1
:10FE5000049A1A420FD00CAC03222900200007F0AC
:10FE60007EFC0622B24B2380A37893431A00022320
:10FE70001343A37028940DAC03220021200007F047
:10FE80006EFC3223049A1A4204D0F368002B52D03D
:10FE9000212323700C23049A1A4205D0F2680DAB7B
:10FEA000002A4AD021225A7006220DACA3783800CD
:10FEB00093431A0002231343A3703B689B6998473E
:10FEC00001210122A37882438B431343A370029B39
:10FED0005B180493039B0693049A079B93423CDDB3
:10FEE000069B5D682800FEF728FBA4239B0198422F
:10FEF00033D12C1E00D02C1F251D2800FEF71BFB24
:10FF00008C4908F0E7FA002819D1236820009B6883
:10FF1000984723682490DB6820009847236823AD26
:10FF20002881DB68200098476881049B0133049393
:10FF3000069B0433CFE71123ABE71122B3E7280078
:10FF4000FEF7F9FA7C4908F0C5FA0028EDD12368DC
:10FF500020009B6898472690E7E742200AAB0A22D8
:10FF60000021C01807F0FBFB10AB18AD18930DABC8
:10FF70006B600AABDB8838002B813B6800249B68F0
:10FF80009847019A336EA8819B1808332A0023A949
:10FF900020002C61FFF7DEF80AABDB88A34216D005
:10FFA0000AAB9A1D1388A34208DD3B6821005B69F8
:10FFB0003800984732ABE0540134F1E7316E019BD1
:10FFC0008C4663441889002132ABFFF7B1FD059BD5
:10FFD0000133DBB20593A9E62800FEF7AEFAA423AD
:10FFE0009B01984200D0A1E62C1E00D02C1F251D9D
:10FFF0002800FEF7A0FA4F4908F06CFA002800D15B
:020000022000DC
:1000000094E62800FEF797FA4C4908F063FA0028B6
:1000100000D18BE62800FEF78EFA494908F05AFA1B
:10002000002800D182E62800FEF785FA424908F050
:1000300051FA002800D179E623682000DB68984750
:1000400023AD0AAB988118AF14220021280007F0D5
:1000500086FB03220021380007F081FB0223BB70DE
:1000600023682000DB6898470AAB9B8980B2C01ADE
:100070000121421E9041BA788A431043F268B87059
:10008000002A25D021223A702B8110AA23682A60E9
:1000900018AADB686A60200098470027A8810BAA8D
:1000A00023A938002F61FFF757F80DAB1B88BB421F
:1000B00000D13BE63D000DAA1388AB420ADD236860
:1000C00029001B692000984732ABE8540135F2E75C
:1000D0001122D8E70BAB1888002132ABFFF728FDBF
:1000E00024E60025099BAB422ED01C002F00023CC9
:1000F000E4B22500BC4227DD7B9ABB00D55828001E
:10010000FEF71BFAA0239B01984206D1320064320D
:100110001378013313700137EBE72800FEF70DFA6F
:10012000084B9842F7D132006D32F1E7ACB20200D1
:10013000111100006EA5020078B302007DB3020029
:1001400082B302000328000033000C2064331B78C4
:10015000AD00584307F0B2FA3300B0666D3318783B
:10016000000107F0ABFA7B9F30677B1904930023F3
:10017000029301930393049BBB426ED03C68200022
:10018000FEF7D9F9010032A8FEF792FF32A8FEF778
:10019000B9FF050032A8FEF7B7FF022825D16A781B
:1001A0002B7812021DA913430B8001238B702000B2
:1001B000FEF7C3F9A0239B0198422DD10C20019B8F
:1001C0001D9A5843B36E00211C50B36E1B185A6021
:1001D000B36E04221818083007F0C1FA019B03948B
:1001E0000133DBB201930437C5E72900102223A8AD
:1001F00007F099FA6A7B2B7B1202134370211DAA28
:10020000138000230AAA5218138022390AABC91896
:1002100023A8FEF7AFFFCAE72000FEF78EF9194BBF
:100220009842E0D1221E00D0221F029B316F1B0199
:10023000CA50326F0399D2185160326F1D99D2188B
:1002400091600021326FD2181173326FD318D981A7
:10025000029B0133DBB20293C5E7F06800280AD0A5
:1002600000F09EF8002806D031001C2300223C310B
:10027000F06800F0B9F8336830009B69984773B0B4
:10028000F0BDC046032800000123F0B5040000279C
:100290008BB00291019323005D331B78BB4255DD87
:1002A00014257D43236E5D192E68029B9E4247D123
:1002B000626B934204D1236802995B6A20009847DD
:1002C000336830001B69984704ABD8802B89300015
:1002D0000393336806AEDB68984704AA030006322E
:1002E00000210398FFF724FC0A2004ABC0180E225B
:1002F000002107F034FA2B89338004AB0633B36056
:100300002B7C002B0CD022005C321378002B19D0F0
:10031000013B13700123B370208F3100FEF720FFE3
:100320006B7C002B0CD022005C321378002B0BD09E
:10033000013B13700223B370208F3100FEF710FFD2
:100340000137A8E70193EBE70193F9E701980BB0B8
:10035000F0BD000010B5040000F07AF80D4B00214C
:100360000833236023003333197001235B42238752
:10037000200023003C305C3361631C22198021661D
:100380001972A166198221671976A06507F0E7F94D
:10039000200010BD88B3020029DF704728DF7047B6
:1003A000036818680130431E9841C0B2704780232B
:1003B0005B0510B51969006804F0DCF80400200042
:1003C000FFF7ECFF1128FAD010BD70B51C00050036
:1003D0000E00FFF7ECFFA408220031002868FFF7A9
:1003E000DBFF1128F8D070BD002210B500689A42DA
:1003F00003D284588C500432F9E710BD704770471F
:1004000070470020704770477047002070470020F9
:100410007047002070470020704700207047002080
:100420007047002070470020704700207047002070
:100430007047002070470020704770477047704732
:10044000704710B5040001F059FD200010BD0000F8
:10045000054B01220833036064234360002382724A
:100460000381C36003617047ECB302000161704710
:10047000704770477047704770474171704781718E
:10048000704701717047000010B5034C01710834CA
:1004900004604271837110BD50B402007047322075
:1004A000704770B50D00040000F04DFD01226A4058
:1004B0005242D2B24321200000F035FE70BD70B52B
:1004C0000D00040000F041FD2A003F21200000F053
:1004D0002AFE70BDF7B503680400DB680F00150045
:1004E00098470190002815D026002A36002F0DD0FD
:1004F000002D0BD033782A789A4201D933782B70AB
:1005000021002A782B31380007F00DF900235D34E3
:10051000337023700198FEBD70B5040015001A00F9
:1005200000F0D0FD0122054B20002360A31DDD77E4
:1005300023331A70024BE38470BDC046FCB6020040
:10054000FF01000010B58022072100F0ECFD012022
:1005500001F03EFC10BD10B5022100F0C3FD10BD3E
:1005600070B5040004A805780320034013438022DB
:1005700052421A430A43D2B20F21200000F0D3FDA9
:100580002A001021200000F0CEFD0F21200000F0F5
:10059000A9FD0306F9D51121200000F0A3FD70BDCF
:1005A00037B51500202204000A43122100F0BBFDDC
:1005B0002A001321200000F0B6FD00212000009148
:1005C0000B000A00FFF7CCFF3EBD0000F7B50E1C84
:1005D00005004E49301C0092002404F091F90700F8
:1005E000A04270D14A49301C04F09EF93C0000281A
:1005F00069D14849301C04F0A1F90021002864D0D9
:10060000009804F07DF9071E5DD1009806F0C6FE43
:10061000414A424B0090019104F04CF93C00002803
:1006200051D1FC21301C890504F064FD00223C4BB3
:10063000061C0098019906F039F83A4B002205F0A3
:100640002BFC04F0C7F96023C4B23749301C009377
:1006500004F078FB061C03F08BFE071C04F0A2F9E3
:10066000009B18380343DBB2391C301C009304F0A4
:1006700073FE2E4904F03EFD04F094F9002286B288
:100680007321280000F04FFD00227421280000F0A3
:100690004AFD009A7521280000F045FD320A7621B6
:1006A000280000F040FDF2B27721280000F03BFD69
:1006B00022002A21280000F036FD2800FFF74BFF1A
:1006C0000124C00884432000FEBD009804F018F9FE
:1006D000071EF8D1009806F061FE0F4A144B0090F7
:1006E000019104F0E7F83C000028ECD10098019952
:1006F00000220B4B05F0DAFF0E4B002205F0CCFB7D
:1007000004F068F94023C4B29FE7C046000070437C
:10071000000070440000F043666666666666D43F7B
:1007200080842E41008893400000204100007A47D9
:100730006666C43F0088834010B50A00072100F0B8
:10074000F2FC10BD10B503790400012B04D0002188
:10075000FFF7F2FF01232371012010BD037910B5CB
:100760000400022B06D003000833D97FFFF7E4FF13
:100770000223237110BD037970B50400042B07D048
:10078000030004250833D97F2943FFF7D5FF2571DE
:1007900070BD10B504005D342378DBB2002B04D1AA
:1007A0000279032A03D0FFF7E6FF2378DBB21800B3
:1007B00010BD082210B50A436D2100F0B4FC10BD35
:1007C00070B505000C000A781C2100F0ACFC6278C2
:1007D00028001F2100F0A7FCA21C280006232021CE
:1007E00000F0FBFC22000323280008322C2100F03B
:1007F000F4FCE27A2800582100F095FC227B2800C6
:10080000692100F090FC220028000D3205236E21A2
:1008100000F0E3FC70BD000010B5040086B00020BD
:100820001B290BD812225143054B01A8591806F079
:100830007AFF200001A9FFF7C3FF012006B010BD19
:1008400086B4020010B50A00342100F06CFC10BD23
:1008500010B513000A00362100F0BFFC10BD70B5C2
:10086000050014002A352A78030012190020322AC4
:100870000ADC2A782B339818220006F054FF012056
:100880002B78E418E4B22C7070BD10B5040000237E
:100890002A342370343423709A4202D0FFF7DFFFEA
:1008A0000300180010BD70B5030004002A335E3445
:1008B00021781A78914214D21A782378D21AD2B2B7
:1008C000151C3B2A00D93B2502002378EDB22B32C0
:1008D000D2187F212B0000F080FC23785B19DBB25B
:1008E000237070BD10B504000322082100F01BFC2A
:1008F00000220821200000F016FC10BD10B50400F5
:100900000222082100F00FFC00220821200000F044
:100910000AFC00235D34237010BD10B50379040078
:10092000032B0BD0030008210833DB7F1943FFF7AB
:1009300003FF2000FFF7E2FF0323237110BD10B572
:100940000400FFF7B0FF23002A331A783E21D2B209
:10095000200000F0E8FB2000FFF7DFFF10BD0223BE
:1009600003710300002210B55E331A70FFF7E7FF32
:1009700010BD70B5040003680D001B6A160098478F
:1009800023682000DB6A9847002802D10025280050
:1009900070BDE27A3A21200000F0C5FB227B3B21AA
:1009A000200000F0C0FB627B3C21200000F0BBFB7C
:1009B000A27B3D21200000F0B6FB29003200200080
:1009C000FFF763FF051EE1D02000FFF7B8FFDEE769
:1009D000F0B585B003AE022332000321040000F01D
:1009E000D3FBB64DB649280000F059FC10223178EF
:1009F000280000F0EAFCB349280000F050FC7178B0
:100A00001022280000F0E5FC33785B0703D5AE49DF
:100A1000280000F069FC33789B0703D5AB49280018
:100A200000F062FC3378DB0703D5A949280000F009
:100A30005BFC33787F2B03D9A649280000F054FCD7
:100A400033789B0603D5A449280000F04DFC337889
:100A50005B0603D5A149280000F046FC3378DB068D
:100A600003D59F49280000F03FFC33781B0703D5CE
:100A70009C49280000F038FC73785B0703D59A493D
:100A8000280000F031FC73789B0703D597492800B4
:100A900000F02AFC7378DB0703D59549280000F0A5
:100AA00023FC73781B0703D59249280000F01CFC37
:100AB0002000FFF750FD1023034007000193002B97
:100AC00003D08D49280000F00FFC3B0603D58B496D
